:100000000C9430000C9467160C948E160C94B51654
:100010000C941B1A0C941B1A0C94DC160C940317EA
:100020000C942A170C9451170C941B1A0C941B1A3D
:100030000C941B1A0C941B1A0C941B1A0C941B1A6C
:100040000C941B1A0C941B1A0C941B1A0C941B1A5C
:100050000C941B1A00600070800070025E00344433
:1000600011241FBECFE5D8E0DEBFCDBFE4E5F0E050
:1000700040E017C0B591A59135912591059107FDF7
:100080000CC095918591EF01F92FE82F05900D9205
:10009000A217B307D9F7FE0104C01D92A217B30738
:1000A000E1F7E036F40731F70E94E0150C94AB1944
:0400B000F894FFCFF2
:1000B400467265713A2564487A00447574793A2524
:1000C4002E3266250024002600270029002800235C
:0F00D40000400054696D653A252E32666D730049
:1000E30068076C094C836A9074A07AC000806888A2
:0600F30000846C82008114
:1000F900494E4600696E66004E414E006E616E00C3
:07010900286E756C6C2900E3
:06011000286E696C290055
:10011600A3EAB0E0E1E9F0E00C9418184C015901AB
:10012600C756DF4F488359836A83C959D040212C6B
:10013600312C6E012BE8C20ED11C85E2782E2601E9
:1001460030E8632ECE018D569F4FC456DF4F9983FC
:100156008883CC59D0409C0140E8CF55DF4F288397
:1001660039834A83C15AD040C756DF4F4881C9599F
:10017600D040C656DF4F5881CA59D040C556DF4FCA
:100186006881CB59D040FA01849167FD808188232C
:1001960009F4C9C3CF57DF4F19821882C158D0401E
:1001A6008FEF9FEFCD57DF4F99838883C358D04099
:1001B600CB57DF4F19821882C558D040A1E0B0E076
:1001C600AC0FBD1FC957DF4FB983A883C758D040AE
:1001D600E0E8F0E0C757DF4FF983E883C958D0401D
:1001E600CA01A62FE12CF12CFC012491A7FD208148
:1001F60021111BC0E114F10401F19701C4010E9411
:100206004A15C756DF4F88819981AA81C959D040BE
:100216008E0D9F1DA11DF7FCAA95C756DF4F88833B
:100226009983AA83C959D04008C00196A11D2532D9
:1002360009F3FFEFEF1AFF0AD7CFC756DF4F8881C2
:100246009981AA81C959D040FC012491A7FD20813A
:10025600253209F056C39C014A2F2F5F3F4F4F4F5F
:10026600C256DF4F288339834A83CE59D040C756BA
:10027600DF4F288339834A83C959D040C756DF4F99
:1002860088819981AA81C959D040FC012491A7FD92
:1002960020812B3241F4CF57DF4F28813981C15855
:1002A600D04024600BC02C32CCF02D3259F5CF57FC
:1002B600DF4F28813981C158D0402160CF57DF4FA9
:1002C60039832883C158D0400196A11DC756DF4FF8
:1002D60088839983AA83C959D040D0CF203241F46C
:1002E600CF57DF4F28813981C158D0402860E6CFEB
:1002F600233291F4CF57DF4F28813981C158D0403E
:100306002061DCCF203341F4CF57DF4F288139817C
:10031600C158D0402260D2CF2A3299F50196A11D4C
:10032600C756DF4F88839983AA83C959D040D50120
:10033600ED91FC911197CF0102968D939C9380814C
:100346009181CB57DF4F99838883C558D04097FF5B
:100356003EC0CF57DF4F28813981C158D040B1E028
:100366002B27CF57DF4F39832883C158D04091952B
:1003760081959109CB57DF4F99838883C558D04023
:1003860026C0BC018A2F0E944714CB57DF4F9983A2
:100396008883C558D040C756DF4F288139814A81A6
:1003A600C959D040F901849147FD8081082E000C7F
:1003B600990BC0970A9758F42F5F3F4F4F4FC75678
:1003C600DF4F288339834A83C959D040E4CFCF57BA
:1003D600DF4F88819981C158D04080FF07C08D7F4B
:1003E600CF57DF4F99838883C158D040C756DF4F18
:1003F60088819981AA81C959D040FC012491A7FD21
:1004060020812E3209F058C0CD57DF4F198218824D
:10041600C358D0409C014A2F2F5F3F4F4F4FC756BE
:10042600DF4F288339834A83C959D040F901549153
:1004360047FD50815A32D1F40296A11DC756DF4FAF
:1004460088839983AA83C959D040D501ED91FC913F
:100456001197CF0102968D939C9380819181CD5700
:10046600DF4F99838883C358D04026C0842FB901B3
:100476000E944714CD57DF4F99838883C358D040D5
:10048600C756DF4F288139814A81C959D040F901C1
:10049600849147FD8081082E000C990BC0970A971E
:1004A60058F42F5F3F4F4F4FC756DF4F288339838E
:1004B6004A83C959D040E4CFCE0187569F4F0E9448
:1004C600AF13182FC756DF4F2881C959D040C656DB
:1004D600DF4F8881CA59D040C556DF4F9881CB5926
:1004E600D040E22FF82F849197FD8081082E000CD2
:1004F600990B0E94C8198936910509F45AC0B4F4BB
:100506008336910509F466C144F48532910509F4F0
:10051600A1C18136910529F1B3C18436910509F44B
:1005260048C0883691050CF42DC1AAC180379105C3
:1005360009F4CBC04CF48E36910509F419C18F36F7
:10054600910509F47CC09CC18537910509F454C016
:100556008837910509F496C08337910509F090C153
:1005660058C1612F70E0A501C6010E94BE17892BF4
:1005760009F4B7C1C756DF4F88819981AA81C95945
:10058600D0409C014A2F2F5F3F4F4F4FC756DF4F3A
:10059600288339834A83C959D040FC012491A7FD99
:1005A6002081A601BE016F577F4FC4010E94181A11
:1005B60095C1612F70E0950141E050E0C6010E94AF
:1005C600CB0C892B09F48DC1C756DF4F88819981E1
:1005D600AA81C959D0400196A11DC756DF4F88830D
:1005E6009983AA83C959D040A601BE016F577F4F90
:1005F600C4010E940C0C72C1612F70E0950140E0AD
:1006060050E0C6010E94CB0C892B09F46AC1C7567B
:10061600DF4F88819981AA81C959D0400196A11DD1
:10062600C756DF4F88839983AA83C959D040A6014C
:10063600BE016F577F4FC4010E9462124FC1612FE6
:1006460070E0950140E050E0C6010E94CB0C892B7A
:1006560009F447C1C756DF4F88819981AA81C959D4
:10066600D0400196A11DC756DF4F88839983AA8380
:10067600C959D040A601BE016F577F4FC4010E94E1
:100686002C112CC1612F70E0950140E050E0C601AD
:100696000E94CB0C892B09F424C1C756DF4F8881F1
:1006A6009981AA81C959D0409C014A2F2F5F3F4F9B
:1006B6004F4FC756DF4F288339834A83C959D040E5
:1006C600FC012491A7FD20814BC0950140E050E03C
:1006D60060EF70E0C6010E94CB0C892B09F401C1C2
:1006E600C756DF4F88819981AA81C959D0400196A2
:1006F600A11DC756DF4F88839983AA83C959D04065
:1007060086E020E131E040E0F901DE01AD56BF4F61
:10071600742F0E947A19D6012C9111963C9111974B
:1007260012964C91129713965C91139714966C91AE
:10073600149715967C91159716968C911697179681
:100746009C91A0E00E94931951F400E010E0CF556F
:10075600DF4F288139814A81C15AD040B9C028E784
:10076600A601BE016F577F4FC4010E94AB09B6C0F8
:10077600612F70E09501A1014E0D5F1DC6010E941B
:100786005610AFC0612F70E0A501C6010E94BE17CA
:10079600892B09F4A6C0C756DF4F88819981AA81A3
:1007A600C959D0409C014A2F2F5F3F4F4F4FC75624
:1007B600DF4F288339834A83C959D040FC012491ED
:1007C600A7FD2081A601BE016F577F4FC4010E947D
:1007D6009C0484C0103809F084C0C756DF4F888156
:1007E6009981AA81C959D0400196A11DC756DF4FEC
:1007F60088839983AA83C959D040D501ED91FC918C
:100806001197CF0102968D939C938081F601808388
:100816005BC0103809F065C0C756DF4F88819981E3
:10082600AA81C959D0400196A11DC756DF4F8883BA
:100836009983AA83C959D040D501ED91FC911197AE
:10084600CF0103968D939C9320813181428100E0F4
:1008560010E03EC0103809F044C0C756DF4F88810B
:100866009981AA81C959D0400196A11DC756DF4F6B
:1008760088839983AA83C959D040F601708224C01F
:10088600D6017C92C256DF4F288139814A81CE59E2
:10089600D040C756DF4F288339834A83C959D04091
:1008A600CF57DF4F19821882C158D040CB57DF4F40
:1008B60019821882C558D0408FEF9FEFCD57DF4F72
:1008C60099838883C358D04001E010E0462D9201F9
:1008D600BE016F577F4FC4010E94FD118E0D9F1DF3
:1008E60011C0C756DF4F88819981AA81C959D04066
:1008F6000196A11DC756DF4F88839983AA83C959DC
:10090600D040C7017101E80EF91EE214F3044CF45D
:100916008FE490E090936F0080936E008FEF9FEFCF
:1009260003C0170121CCC101CD55DF4FE2E10C9484
:02093600341873
:10093800A6E2B0E0E2EAF4E00C9418189F8F8E8FDC
:10094800798F688F122FFB010190F081E02DFA87D3
:10095800E987FB01C280D380248135813C8B2B8BB6
:100968008085918599A388A30680F781E02DFA8375
:10097800E983FA0180809180A280B38020E030E092
:10098800A901C501B4010E94F91987FF06C0B7FA89
:10099800B094B7F8B0948DE204C0F985F2FF0CC3A7
:1009A8008BE2E981FA8180832B893C8921503109C6
:1009B80038872F8341E050E05A8B498B06C08B89DA
:1009C8009C8998878F831A8A198AD501C401BF77B1
:1009D8000097E0E8AE07EFE7BE07D9F4212F110F23
:1009E800330B2154310989819A8149895A89840FA5
:1009F800951F2A31310520F449EF50E060E003C02B
:100A08004DEF50E060E00E945E196DEF70E080E00D
:100A18001EC00197A048BF4730F1212F110F330B9B
:100A28002154310989819A8149895A89840F951FEE
:100A38002A31310520F441E051E060E003C045E08F
:100A480051E060E00E945E1965E071E080E00E947C
:100A5800C518E981FA81AF0160E8E984FA840B8955
:100A68001C899C01A1C220E030E0A901C501B401A4
:100A78000E94F9191B821C82882309F467C0F0E8D8
:100A8800FD832FE32E83212C312C20E030E040E23F
:100A980051E46B817C818D819E810E940B1AF62E18
:100AA800072F8D879B87A50194010E94FE191816B0
:100AB80054F03FEF231A330AFB820C834D854D8394
:100AC8005B855E83E2CF1C861B862B813C814D8132
:100AD8005E81C501B4010E94F91987FF3DC084ED0C
:100AE80028168EEF380604F5EB85FC85EF2BE1F42C
:100AF80020E030E040E85AE5C501B4010E940B1A35
:100B08004B015C0120E030E040E85AE56B817C81D4
:100B18008D819E810E940B1A6B837C838D839E83BB
:100B280021E030E03C872B8720E030E040E251E4D0
:100B38006B817C818D819E810E94071A6B837C83E7
:100B48008D839E8331E0231A3108BFCF40E84D835F
:100B58005FE35E83212C312C812F110F990B9BA30E
:100B68008AA30E94C8198B8FD7FC03C0DEA2CDA22E
:100B780004C0E6E0F0E0FEA3EDA3FB8DF73641F4F8
:100B8800CD2809F01EC221E030E03EA32DA319C2F2
:100B98008B8D8D8B04C037FE25C296E69D8BEDA10B
:100BA800FEA13196FEA3EDA3FD89F63699F437FE32
:100BB80008C01B821C8220E82D833FE33E83212C42
:100BC800312C4B8D473631F08DA19EA1820D931D9E
:100BD8009EA38DA39B819B87EC81ED87FD81FE8B76
:100BE8002E812A8F750164011D8E1C8E8C8D9D8D22
:100BF800EDA1FEA18E179F07C1F12B853D854E897A
:100C08005A8DC701B6010E94071A0E94C70E2B0110
:100C18003C010E94D7196CA38701760117FB109538
:100C280017F910952B853D854E895A8DC301B20160
:100C38000E94290E6B017C01F7FAF094F7F8F09402
:100C480020E030E040E251E46B857D858E899A8D05
:100C58000E94071A6B877D878E8B9A8F4C8D5D8DCE
:100C68004F5F5F4F5D8F4C8FC1CF20E030E040EA8F
:100C780050E46B857D858E899A8D0E940B1A2B0115
:100C88003C019B01AC01C701B6010E94F91987FD1F
:100C98000BC0A3019201C701B6010E94F919811185
:100CA80006C0FCA1F0FD03C0412C512C3201A30168
:100CB8009201C501B4010E94D1194B015C012D8933
:100CC800253611F0310102C0612C712C23014DA190
:100CD8005EA1441A550AC988DA8800E010E01C862B
:100CE8001B8689859A85807199279F8B8E8B6414C2
:100CF800750431F48B859C85892B09F49AC0A6C0AC
:100D0800DD8ECC8EE88DF98D808591850597C81686
:100D1800D90680F72B813C814D815E81C501B401E4
:100D28000E94071A0E94C70E6D877E878F87988B4F
:100D38000E94D719CB01EE89FF89EF2B69F4892B23
:100D480059F4FB8DF73641F477FE06C098012F5F02
:100D58003F4F3D8F2C8F43C04B855C85452BB1F4AD
:100D680077FE14C05FEFC51AD50AE981FA818C8D28
:100D78009D8DE80FF91F9EE29083EF81F8853197EA
:100D8800F887EF8321E030E03C872B87E981FA81FF
:100D9800EC0DFD1D1D8F0C8F8C8D9D8D892B49F0C1
:100DA80030E331934C8D5D8D415051095D8F4C8FEF
:100DB800F3CFC8018C0D9D1D2F813885201B310B69
:100DC8006C01EFEFCE1ADE0AE981FA81E80FF91F0C
:100DD800605D6083A9014150510958874F8385019F
:100DE800740117FB109517F910952B813C814D81E3
:100DF8005E816D857E858F8598890E94290E4B01BD
:100E08005C01B7FAB094B7F8B09420E030E040E263
:100E180051E46B817C818D819E810E94071A6B83CE
:100E28007C838D839E8351E0651A71080C8D1D8D1E
:100E38005ECFF985F4FF0AC0E981FA81EC0DFD1D4A
:100E48008EE2808396012F5F3F4F690149815A8165
:100E58004C0D5D1D5C874B87FA011082FD89F536C4
:100E680009F061C0E981FA8128A139A1E20FF31FD5
:100E78003197108237FE06C031942194310801E081
:100E880010E002C000E010E0E8A1F9A13197498123
:100E98005A81E40FF51F22E030E08AE0E82EF12CB9
:100EA800CF0149815A81841B950B2114310479F0B3
:100EB800C101B7010E94EF18805D82931B01215088
:100EC80031098F819885019798878F83E9CF12160A
:100ED800130674F3FC013197E40FF51F012B11F48D
:100EE8002BE201C02DE220830297E981FA81E80F05
:100EF800F91F2AA13BA1215431092A31310510F0EB
:100F080025E601C025E420832F8138852250310948
:100F180038872F83C816D90634F4AF0160E88B856B
:100F28009C850E945E1949815A813A0180E8882E81
:100F3800998591FF2EC090FD2CC0EF81F8851E1673
:100F48001F063CF5882DB3010E94C51829813A81F6
:100F5800820F931F9C0149815A81241B350BE98913
:100F6800FA892E173F074CF0FC012081EF81F885A4
:100F7800E80FF91F20830197EDCF4F81588560E373
:100F880070E089819A818E0F9F1F0E94B6191C8A72
:100F98001B8A882DB3010E94C518E984FA840B893D
:100FA8001C899C01682DA3018E8D9F8D0E94600F66
:100FB800A696E2E10C943418598553FF00CD80E2DF
:100FC800F0CC2CEF22162FEF32064CF04DA15EA18B
:100FD800241635060CF4DFCD55E65D8BFBCD35E6E2
:0A0FE8003D8BF8CD46E64D8BF5CDAC
:100FF2002F923F924F925F926F927F928F929F9227
:10100200AF92BF92CF92DF92EF92FF920F931F9314
:10101200CF93DF93CDB7DEB72A970FB6F894DEBF32
:101022000FBECDBF78876F83282F30E03E832D839C
:10103200C90188549F4F9C838B83411107C025B3FC
:10104200286025BB25B32F7E25BB06C025B32061B2
:1010520025BB25B3277F25BB0E949918512C312C23
:10106200212C0F2EFFE34F2EF02D1A8619861A829D
:1010720019824AC16D807E80719461947108769460
:10108200762C66247794679495E0691A9CEF790A26
:10109200E985FA856E167F0608F440C1803209F0B0
:1010A20048C050C0A984BA84AE0CBF1C20E030E016
:1010B20040E05FE3652D732D822D942D0E94D1199E
:1010C200C62ED72E082F192F0E94D7197695762F64
:1010D200662777956795A616B70639F5F5E0EF16F8
:1010E200F10481F180E40E94991895B388E0892780
:1010F20085BB95B380E1892785BB2B813C81B901F2
:1011020080E090E00E94D414252D332D422D542DE1
:101112000E94D1190E941016862F0E9499185C2CE9
:101122003D2C202E412EBA86A9863FEFE31AF30A00
:1011320003C0EE24E394F12C96E0E916F10408F4DE
:10114200B1CF00C089859A856816790608F4E6C091
:10115200F4018081803209F44BC000E010E096C0B7
:10116200F401808190E08097FC01EE0FFF1FEE0FEB
:10117200FF1FE80FF91FE059FF4FE00FF11F8081B9
:101182000E94AF1829853A852F5F3F4F3A872987FA
:10119200C9018F739927892B41F595B388E0892777
:1011A20085BB95B380E1892785BBEB81FC81BF01BB
:1011B20080E090E00E94D414252D332D422D542D31
:1011C2000E94D1190E941016862F0E94991820E0C1
:1011D20030E040E05FE3652D732D822D942D0E9457
:1011E200D119562E372E282E492E0F5F1F4F02C0BF
:1011F20000E010E00530110508F4B2CF7FC0F40121
:10120200808190E08097FC01EE0FFF1FEE0FFF1F21
:10121200E80FF91FE059FF4FE00FF11F80810E9494
:10122200AF1829853A852F5F3F4F3A872987C90131
:101232008F739927892B41F595B388E0892785BB60
:1012420095B380E1892785BBEB81FC81BF0180E0FA
:1012520090E00E94D414252D332D422D542D0E944E
:10126200D1190E941016862F0E94991820E030E0B2
:1012720040E05FE3652D732D822D942D0E94D119DC
:10128200562E372E282E492E0F5F1F4F053011057F
:1012920008F4B5CF80E00E94AF1889859A8501963F
:1012A2009A8789878F739927892B41F595B388E0AF
:1012B200892785BB95B380E1892785BBEB81FC81BA
:1012C200BF0180E090E00E94D414252D332D422DE1
:1012D200542D0E94D1190E941016862F0E9499182F
:1012E20020E030E040E05FE3652D732D822D942DE8
:1012F2000E94D119562E372E282E492E29813A8145
:101302002F5F3F4F3A8329838F80988489819A8106
:10131200880E991EF40180818111ACCE80E40E9476
:1013220099182A960FB6F894DEBF0FBECDBFDF9193
:10133200CF911F910F91FF90EF90DF90CF90BF90D0
:10134200AF909F908F907F906F905F904F903F9063
:041352002F9008953B
:10135600A4E1B0E0E1EBF9E00C94181898878F83CC
:101366007A8369835C8B4B8B122FDB011296ED918E
:10137600FC91139714962D913C9115973E832D83DE
:10138600ED90FC90119716962D903C901797F7FDCF
:1013960003C0E894E1F802C0E1E0F0E0C701807123
:1013A60099279A878987E4FE1FC0AB89BC892C914F
:1013B60011963C91119712964C91129713965C9147
:1013C600139714966C91149715967C91159716960B
:1013D6008C91169717969C91A0E00E94931921F084
:1013E6008D819E81029702C08D819E819701287012
:1013F60033273C872B87E3FC0197AB89BC894C904C
:1014060011965C90119712966C90129713967C9099
:10141600139714968C90149715969C90159716967C
:10142600AC9016971796BC90A981BA811896CD9064
:10143600DC901997B1E0CB1AD108D101AC0DBD1DD6
:101446001C929C838B839F01281B390B3E872D871B
:10145600C70182709927988B8F87812F012E000CE8
:10146600990BDC01A154B109BA8BA98B32E0C316E2
:10147600D10434F489859A85892B09F04CC073C050
:101486009201A301B401C501A0E00E94931981F164
:10149600B1E0CB1AD108C2018F7099278A30910525
:1014A60014F4C09602C0895A9F4FE989FA897A973F
:1014B60048F49C012062215631092A31310510F485
:1014C6000E94BF19F101EC0DFD1D80832B813C812B
:1014D600215031093C832B839201A301B401C5013C
:1014E60004E00E94E01729013A014B015C01BECFDE
:1014F6008D859E85AB81BC818A0F9B1F18161906A8
:101506003CF21A161B060CF0B5CFEF85F889EF2BC7
:1015160009F0BECFAFCFAB89BC892C9111963C9117
:10152600119712964C91129713965C9113971496F5
:101536006C91149715967C91159716968C91169723
:1015460017969C91A0E00E94931969F0F101EC0DA9
:10155600FD1D31971083B2E0CB1AD108F101EC0DD5
:10156600FD1D80E38083EB85FC85EF2B41F0F1E0E8
:10157600CF1AD108F101EC0DFD1D80E28083A9810F
:10158600BA8118962D913C911997215031092C1941
:101596003D09C20CD31CA60160E80D811E818F8116
:1015A60098850E94600F9C01EF81F885808191816A
:1015B60090FF09C0A981BA8112968D919C911397CB
:1015C600821793070CF4C9016496E2E10C9434186F
:1015D6007F928F929F92AF92BF92CF92DF92EF92BD
:1015E600FF920F931F93CF93DF93CDB7DEB7E797A5
:1015F6000FB6F894DEBF0FBECDBF60915802709152
:10160600590280915A0290915B020E941016062F91
:10161600FE0131968FE0DF011D928A95E9F7019070
:101626000020E9F722E030E049EC50E060E0CF012D
:1016360001970E946818FE017096DF010D90002048
:10164600E9F7CD0122E030E04BEC50E060E0019795
:101656000E946818712CE12CF12CC12CD12C72C07F
:10166600FE017096DF010D900020E9F7CD0122E022
:1016760030E04DEC50E060E001970E946818BFEF43
:10168600CB1ADB0AEFEF8E1A9E0AAE0ABE0A03C019
:10169600812C912C54011DEC019F112D11241695BE
:1016A60016951695812F90E0A0E0B0E08816990671
:1016B600AA06BB06A8F2FE017096DF010D90002077
:1016C600E9F7CD0122E030E04FEC50E060E0019711
:1016D6000E946818812C912C540117C0FE01709647
:1016E600DF010D900020E9F7CD0122E030E041ED69
:1016F60050E060E001970E946818BFEFEB1AFB0A02
:10170600EFEF8E1A9E0AAE0ABE0A8AE090E0811BAF
:101716009109092E000CAA0BBB0B88169906AA067E
:10172600BB06E0F2FE017096DF010D900020E9F79E
:10173600CD0122E030E04BEC50E060E001970E94E2
:1017460068187394B1E0B71508F0A2CFEC0CFD1C35
:10175600FF201CF4EFEFEE1AFE0AF594E79412C090
:10176600FE013196DF010D900020E9F7CD0122E060
:1017760030E043ED50E060E001970E946818B1E068
:10178600EB1AF1081E141F045CF38E010F5F1F4F46
:10179600F80101900020E9F7CF0122E030E045EDA5
:1017A60050E060E001970E94681840E0B80186E0CA
:1017B6000E94F90720E010C0822F90E0FC013B96C2
:1017C60040E150E04C0F5D1FE40FF51F3081FA0138
:1017D600E80FF91F30832F5F2E3170F340E0BE0112
:1017E600605F7F4F87E00E94F907E7960FB6F8948F
:1017F600DEBF0FBECDBFDF91CF911F910F91FF903E
:10180600EF90DF90CF90BF90AF909F908F907F909A
:02181600089533
:10181800ADE0B0E0E2E1FCE00C9418189A87898703
:101828007C836B83FA01DB011296CD90DC901397D1
:1018380014968D919C9115979E838D83ED90FC90C5
:101848001197FA82E98216960D90BC91A02DB8875F
:10185800AF83208031804280538064807580868089
:1018680097808101B42DF52DE62D7B868C869D868B
:101878009101A201B301C401A0E00E9493194CF4A4
:101888000E944E198901B42FF52FE62F7B878C878C
:101898009D87D7FC04C0E894E1F8FA82E9829101B7
:1018A800A201B301C401A0E0ED80FE800E9493195B
:1018B8001CF0898182FF04C081E0E81AF10805C0A4
:1018C80083FF03C091E0E91AF108CE0101965C019B
:1018D8008AE0C82ED12C2B2F3F2F4E2F5B856C858D
:1018E8007D858B819C810E94840DFC019101A20160
:1018F800B301C401A0E00E9493191CF0898182FF02
:1019080012C031970F8118850E0F1F1F9101A20178
:10191800B301C401A0E00E94931914F08BE201C046
:101928008DE2D80108C083FF07C03197AF81B88521
:10193800AE0FBF1F80E28C93E980FA80AB81BC8137
:1019480018962D913C911997215031092E1B3F0B68
:101958008F819885E80FF91FAF0160E80D811E811E
:1019680089859A850E94600F9C01A985BA858D9109
:101978009C9190FF07C0EB81FC8182819381821743
:0E19880093070CF4C9012D96E2E10C9434187B
:101996000F931F93CF93DF93FC01D901683871052C
:1019A60031F194F461387105B1F12CF460387105A8
:1019B60009F478C09FC06238710509F459C06438CB
:1019C600710509F46FC096C0603A710509F448C004
:1019D6002CF46039710509F44BC08CC0603C71056C
:1019E60009F476C0603F710509F472C083C0CD91D9
:1019F600DC911197CE0102968D939C93452B39F07D
:101A06009881892F880F880B908381835BC088819A
:101A16008083118268C0CD91DC911197CE01049626
:101A26008D939C93452B99F088819981AA81BB81DE
:101A3600AC01BD01770F440B542FBA01808391830B
:101A4600A283B383448345834683478328C00881A2
:101A560019812A813B81008311832283338345C008
:101A6600CD91DC911197CE0102968D939C9323C064
:101A7600CD91DC911197CE0108968D939C93788138
:101A860069815A814B813C812D819E818F81708332
:101A9600618352834383348325839683878381E0DE
:101AA60090E02AC0CD91DC911197CE0102968D93DC
:101AB6009C93452BA1F099812881892F880F880B4B
:101AC6002083918382838383848385838683E6CF81
:101AD600CD91DC911197CE0102968D939C9308814E
:101AE6001981008311831282138214821582168251
:101AF6001782D5CF80E090E0DF91CF911F910F91B3
:021B0600089540
:101B0800A2E1B0E0EAE8FDE00C941818FC010A8BA9
:101B18001B832C83732E642E552E462E7D83CC86F4
:101B2800D886BF82AE82868197819B878A87D501B6
:101B38004D915C91228133818085918501971C01AB
:101B480037FF02C021E030E0EA85FB85E80FF91F86
:101B580010824701E1E0F0E0FA83E983C9018E19B8
:101B68009F099E878D87DA01A270BB27B88BAF8744
:101B7800B885BB0FBB0BB98B1214130474F0A98181
:101B8800BA81AB2B09F05CC0AE81BF818D919C916D
:101B980011978F7E8D939C9353C02A893B814C81EA
:101BA800572D662D752D842D9D81A0E00E949319D7
:101BB800B1F1E1E02E1A3108FC85F987AF2EB8841F
:101BC800C988DC2CEC2CFC2C0C2D1C2D2A893B8183
:101BD8004C81572D662D752D842D9D810E946C1981
:101BE800C90129839A83EA85FB85E20DF31D805D8F
:101BF800808381E0881A91082A893B814C81572D7E
:101C0800662D752D842D9D810E946E192A8B3B832C
:101C18004C83752E662E572E482E9D83ADCF8D850D
:101C28009E85880D991D181619061CF2181419049A
:101C38000CF0A5CFEF85F889EF2B09F0BACF9FCF2D
:0A1C4800C1016296E2E10C94341829
:101C5200A5E1B0E0EFE2FEE00C941818470158014C
:101C62000E940B1A2B013C01A80197010E94D11975
:101C7200162FC72ED82EF92E862F9C2DAD2DBF2DB7
:101C820089839A83AB83BC83AA81FB81EC81ED803B
:101C92003E802F8008850D8B5E2F5F71212F3A2F9A
:101CA2004F2F60E070E080E090E0211531054105A2
:101CB20000E15007610571058105910509F05EC0DB
:101CC2005E2F6E2D732D822D9D8904E30E94E017F5
:101CD2002D873E874F87588B698B7A8B8B8B9C8B9A
:101CE2008D859E8597708F3F974009F447C0A30169
:101CF2009201612F7C2D8D2D9F2D0E94D0199B0169
:101D0200AC01C501B4010E94F9198823B9F14986D1
:101D12005A866B867C8629853A854B855C85C5010A
:101D2200B4010E94D119B62E872E982EA92E262FE5
:101D3200372F482F592F612F7C2D8D2D9F2D0E94DB
:101D4200F919811118C02B2D8B2D982DA92DBA2D83
:101D520089839A83AB83BC833A814B815C816E2DEC
:101D6200732D822D9D89A1E00E949F19122FC32EEF
:101D7200D42EF52E03C01B2D6401FA2C612F7C2D6D
:0C1D82008D2D9F2D6596E2E10C94341825
:101D8E004F925F926F927F928F929F92AF92BF927D
:101D9E00CF92DF92EF92FF92CF93DF93CDB7DEB764
:101DAE0028970FB6F894DEBF0FBECDBF6B017C0136
:101DBE00DC01CB0147E1B695A795979587954A9596
:101DCE00D1F799278F579109873191059CF597FD8A
:101DDE0036C088248A94982C3FE7A32EB12C04C0D9
:101DEE00B594A794979487948A95D2F7D501C40198
:101DFE008C219D21AE21BF21892B8A2B8B2BD1F0DB
:101E0E0020E030E040E85BE7C701B6010E94D1193F
:101E1E006D837E838F839887F7FE04C0C80CD91C10
:101E2E00EA1CFB1C80949094A094B094C820D920F6
:101E3E00EA20FB205C2D4D2D3E2D2F2D21C020E0C4
:101E4E0030E040E85BE7C701B6010E94D119698313
:101E5E007A838B839C83F7FE0FC0D701C601880F50
:101E6E00991FAA1FBB1F892B8A2B8B2B19F350E0AE
:101E7E0040E030E82FEB04C050E040E030E020E0DE
:101E8E00652F742F832F922F28960FB6F894DEBFEE
:101E9E000FBECDBFDF91CF91FF90EF90DF90CF902F
:101EAE00BF90AF909F908F907F906F905F904F906C
:021EBE00089585
:101EC0002F923F924F926F927F928F92AF92BF92DA
:101ED000CF92DF92EF92FF920F931F93CF93DF93F6
:101EE000CDB7DEB766970FB6F894DEBF0FBECDBF95
:101EF0005C013A01862E6901C701817099279C8B8C
:101F00008B8BE0FC1DC020173107D4F47801EC184E
:101F1000FD08FE8AED8AA70191E1E916F10410F0AF
:101F200040E150E060E270E0CE0101969A8B898B2F
:101F30000E94B61989899A891C0120E8422E0BC09B
:101F40009601682DA301C5010E944A15C016D1064D
:101F5000ECF2C60125C090E1E916F10458F020E149
:101F600030E0642DA101C5010E944A1580E1E81A04
:101F7000F108F1CF2D893E892F70332789899A89FD
:101F8000AC0160E8C5010E944A158B899C89892BA8
:101F900031F49601682DA301C5010E944A15C801BC
:101FA00066960FB6F894DEBF0FBECDBFDF91CF911E
:101FB0001F910F91FF90EF90DF90CF90BF90AF9067
:0E1FC0008F907F906F904F903F902F900895DC
:101FCE0010C00E94E51958F00E94DE1940F029F465
:101FDE005F3F29F00C94F31951110C94ED190C94E8
:101FEE00151A0E949C1768F39923B1F3552391F3A8
:101FFE00951B550BBB27AA2762177307840738F06A
:10200E009F5F5F4F220F331F441FAA1FA9F335D0C6
:10201E000E2E3AF0E0E832D091505040E695001C7A
:10202E00CAF72BD0FE2F29D0660F771F881FBB1F34
:10203E00261737074807AB07B0E809F0BB0B802D12
:10204E00BF01FF2793585F4F3AF09E3F510578F03E
:10205E000C94F3190C94ED195F3FE4F3983ED4F30E
:10206E00869577956795B795F7959F5FC9F7880F12
:10207E00911D9695879597F90895E1E0660F771F64
:10208E00881FBB1F621773078407BA0720F0621BF5
:0E209E00730B840BBA0BEE1F88F7E0950895C4
:1020AC00CF93DF93DC01F90164387105D9F164F445
:1020BC006138710521F16238710509F440C060384E
:1020CC00710509F054C02EC060397105C1F184F45A
:1020DC006838710509F04BC0C081D181CE010296E0
:1020EC0091838083E881F981ED93FC9340833CC01C
:1020FC00603A7105B9F0603C7105A1F038C0C0813F
:10210C00D181CE01029691838083E881F981ED9390
:10211C00FC93052E000C660B770B40835183628376
:10212C00738322C0C081D181CE01029691838083BA
:10213C00E881F981ED93FC935183408315C0C081F4
:10214C00D181CE01029691838083E881F981ED9350
:10215C00FC9351834083852F880F880B8283838364
:10216C00848385838683878381E090E002C080E04E
:08217C0090E0DF91CF9108957E
:102184000FC00E94DE1938F00E94E51920F0952353
:1021940011F00C94F3190C94151A11240C94ED19E4
:1021A4000E949C1770F3959FC1F3950F50E0551F43
:1021B400629FF001729FBB27F00DB11D639FAA2798
:1021C400F00DB11DAA1F649F6627B00DA11D661FE7
:1021D400829F2227B00DA11D621F739FB00DA11D08
:1021E400621F839FA00D611D221F749F3327A00DC2
:1021F400611D231F849F600D211D822F762F6A2F5E
:1022040011249F5750409AF0F1F088234AF0EE0FC2
:10221400FF1FBB1F661F771F881F91505040A9F7EF
:102224009E3F510580F00C94F3190C94ED195F3F17
:10223400E4F3983ED4F3869577956795B795F7952B
:10224400E7959F5FC1F7FE2B880F911D96958795A3
:0422540097F9089559
:10225800A2E0B0E0E2E3F1E10C9418181C014B0194
:10226800FA01DB0112962D913C91139714964D902B
:102278005C9015978D919C9111979A8389831696F6
:102288006D907C90179737FD03C08D7F9A83898363
:102298000081118122813381448155816681778152
:1022A800FE0131965F0188E0C82ED12C7201C4016D
:1022B8000E94840D298124FF06C00197F301E80FCD
:1022C800F91F20E32083298123FF06C00197F3012A
:1022D800E80FF91F20E22083E980FA80D4011896DC
:1022E8002D913C91199721503109281B390B860DE6
:1022F800971DAC0160E88201C1010E94600F9C013A
:10230800F1018081918190FF08C0D40112968D91CE
:102318009C911397821793070CF4C9012296E2E166
:042328000C943418C5
:10232C0011C00E94DE1938F00E94E51920F039F432
:10233C009F3F19F426F40C94151A0EF4E095E7FB64
:10234C000C94F319E92F0E949C1758F3BA176207E3
:10235C0073078407950720F079F4A6F50C94EC1913
:10236C000EF4E0950B2EBA2FA02D0B01B9019001A4
:10237C000C01CA01A0011124FF27591B99F0593FE8
:10238C0050F4503E68F11A16F040A22F232F342F30
:10239C004427585FF3CF469537952795A795F0407E
:1023AC005395C9F77EF41F16BA0B620B730B840B93
:1023BC00BAF09150A1F0FF0FBB1F661F771F881F4B
:1023CC00C2F70EC0BA0F621F731F841F48F48795A3
:1023DC0077956795B795F7959E3F08F0B0CF939595
:0E23EC00880F08F09927EE0F979587950895B2
:1023FA002F923F924F926F927F928F92AF92BF929B
:10240A00CF92DF92EF92FF920F931F93CF93DF93B6
:10241A00CDB7DEB727970FB6F894DEBF0FBECDBF94
:10242A006C017B013901842E980189E0282E81E014
:10243A00382E80E0482E87E0F101AE014F5F5F4FF2
:10244A00DA01742D0E947A19F70102811381A4809E
:10245A00B580E080F18061147104810419F43A01B5
:10246A00F0E88F2E2115310529F4882DB3010E9439
:10247A00C5189C0117FD04C00217130708F4980138
:10248A008501682DA301C6010E94600F27960FB629
:10249A00F894DEBF0FBECDBFDF91CF911F910F9190
:1024AA00FF90EF90DF90CF90BF90AF908F907F908A
:0A24BA006F904F903F902F9008950F
:1024C400A2E0B0E0E8E6F2E10C9418183C014B01FC
:1024D400FA01DB0112962D913C91139714964D90BD
:1024E4005C9015978D919C9111979A838983169688
:1024F4002D903C90179737FD03C08D7F9A83898375
:1025040000811181228133814481558166817781E3
:10251400FE0131965F018AE0C82ED12C7201C401FC
:102524000E94840DE980FA80D40118962D913C9183
:10253400199721503109281B390B820D931DAC01C9
:1025440060E88201C3010E94600F9C01F301808155
:10255400918190FF08C0D40112968D919C9113979C
:10256400821793070CF4C9012296E2E10C94341803
:102574008F929F92AF92BF92CF92DF92EF92FF928F
:102584004A015B01BC0180E090E00E94D4149B01ED
:10259400AC0160E070E080E89FE30E94071A20E04D
:1025A40034E244E759E40E940B1A20E030E040E8AA
:1025B4005FE30E94D0190E9410166B017C010E94F7
:1025C400DB18C6010E94121A0E94031A8FEFC81A60
:1025D400D80A20E030E048EC52E4C501B4010E947E
:1025E400071A4B015C01B60180E090E00E94D4140C
:1025F400A50194010E940B1A0E941016CB010E949F
:102604000F1AFF90EF90DF90CF90BF90AF909F9004
:042614008F90089506
:102618006F927F928F92EF92FF920F931F93CF93B7
:10262800DF93CDB7DEB761970FB6F894DEBF0FBE64
:10263800CDBFFE01319651E1DF011D925A95E9F7B0
:10264800A2E0B1E0BA83A9839C838B8377FF09C09A
:102658008FE490E090936F0080936E008FEF9FEF70
:1026680019C03901842E7C01615071097F836E8302
:102678009801682DA301CF010E94811848855985CA
:102688002E813F814217530708F49A01F701E20FA0
:10269800F31F108261960FB6F894DEBF0FBECDBF50
:1026A800DF91CF911F910F91FF90EF908F907F90C6
:0426B8006F90089582
:1026BC0088249924F401E401B0E49F93AA279A1585
:1026CC008B049C04ED05FE05CF05D007A10798F4FB
:1026DC00AD2FDC2FCF2FFE2FE92D982C892E982F84
:1026EC00872F762F652F542F432F322F2227B85048
:1026FC0031F7BF9127C01B2EBF91BB27220F331F71
:10270C00441F551F661F771F881F991F881C991C13
:10271C00EE1FFF1FCC1FDD1FAA1FBB1F8A149B04BB
:10272C00EC05FD05CE05DF05A007B10748F08A18BA
:10273C009B08EC09FD09CE09DF09A00BB10B216048
:10274C001A94E1F62EF49401AF01BE01CD01000CF8
:02275C000895DE
:10275E00CF92DF92EF92DC0190E0292F30E0220F32
:10276E00331F6901032E000CEE086E2DA6014D518C
:10277E005F4F6F4F6A01E62EFA018491E7FC80816C
:10278E0081110DC02F5F3F4F032E000C440B2D51B6
:10279E003F4F4F4FF901849147FD808124C0CD906A
:1027AE00DD90EC901297F6014491E7FC4081841382
:1027BE0015C02F5F3F4F032E000C440B2D513F4F82
:1027CE004F4FF901949147FD90815FEFC51AD50ADD
:1027DE00E50ACD92DD92EC92129701C09F5F9B307D
:0E27EE0008F4BBCF892FEF90DF90CF900895B5
:1027FC000F931F93CF93DF93DB012D913C91119796
:10280C0030FF25C017964D915C91189715962D9118
:10281C003C9116974217530778F41296ED91FC9160
:10282C001397808312962D913C9113972F5F3F4FF6
:10283C0013963C932E93129717962D913C911897C3
:10284C002F5F3F4F18963C932E93179715C01D96EC
:10285C00ED91FC911E97309719F48FEF9FEF0CC000
:10286C008B01EC010995892BC1F7F80187819085C3
:10287C00019690878783CE01DF91CF911F910F91A5
:02288C000895AD
:10288E00CF939B01482FF901849147FD80818032BF
:10289E00C9F1682F082E000C770B6950710965304D
:1028AE00710580F18B3249F5A0E0B0E02F5F3F4F0C
:1028BE004F4F02C0A0E0B0E080E090E0CAE0F90126
:1028CE00649147FD6081062E000C770B60537109F1
:1028DE006A30710560F4C89FF001C99FF00D112494
:1028EE002F5F3F4F4F4FCF01861B970BE8CFAB2B80
:1028FE0069F491958195910909C08D32D9F6A1E0BF
:10290E00B0E0D4CF2F5F3F4F4F4FBDCFCF91089543
:10291E000F931F93CF93DF93CDB7DEB7E2970FB62A
:10292E00F894DEBF0FBECDBFBC0180E090E00E94E8
:10293E00D4149B01AC0160E070E080E89FE30E943C
:10294E00071A20E030E04AE754E40E940B1A9F93E6
:10295E008F937F936F9387ED90E0A0E0AF939F935B
:10296E008F938E010F5F1F4F1F930F930E941719A6
:10297E0040E0B80185E00E94F9070FB6F894DEBF7B
:10298E000FBECDBFE2960FB6F894DEBF0FBECDBF21
:0A299E00DF91CF911F910F91089572
:1029A800E89409C097FB3EF49095809570956195E1
:1029B8007F4F8F4F9F4F9923A9F0F92F96E9BB2797
:1029C8009395F695879577956795B795F111F8CF13
:1029D800FAF4BB0F11F460FF1BC06F5F7F4F8F4F7E
:1029E8009F4F16C0882311F096E911C0772321F074
:1029F8009EE8872F762F05C0662371F096E8862F0C
:102A080070E060E02AF09A95660F771F881FDAF762
:0A2A1800880F9695879597F90895A9
:102A22006130D1F4E82FE695E695E695F0E0EE0FF9
:102A3200FF1FE05BFD4F0190F081E02D4081877028
:102A420021E030E0B90102C0660F771F8A95E2F7F4
:102A5200CB01842B8083089561111AC0E82FE6957B
:102A6200E695E695F0E0EE0FFF1FE05BFD4F01906B
:102A7200F081E02D4081877021E030E0B90102C091
:102A8200660F771F8A95E2F7CB01809584238083B6
:022A92000895A5
:102A94006F927F928F92CF92DF92EF920F931F9358
:102AA400CF93DF938C016A01E62EE9013A01862E69
:102AB400620E731E811C37FD8A94C614D704E80481
:102AC40079F0F6018491E7FC8081B801082E000CAE
:102AD400990B0E94FE138FEFC81AD80AE80AEDCFAB
:102AE400CE01DF91CF911F910F91EF90DF90CF90A6
:082AF4008F907F906F90089510
:102AFC000F931F93CF93DF93CDB7DEB7E2970FB64B
:102B0C00F894DEBF0FBECDBF9F938F937F936F93CF
:102B1C008EEB90E0A0E0AF939F938F938E010F5FAD
:102B2C001F4F1F930F930E94171941E0B80180E0CB
:102B3C000E94F9070FB6F894DEBF0FBECDBFE29628
:102B4C000FB6F894DEBF0FBECDBFDF91CF911F91B2
:042B5C000F91089538
:102B60000F931F93CF93DF93CDB7DEB7E2970FB6E6
:102B7000F894DEBF0FBECDBF9F938F9384EB90E0A0
:102B8000A0E0AF939F938F938E010F5F1F4F1F9312
:102B90000F930E942A1940E0B80180E00E94F907D3
:102BA0000FB6F894DEBF0FBECDBFE2960FB6F89415
:102BB000DEBF0FBECDBFDF91CF911F910F91089562
:102BC000409158025091590260915A0270915B02F3
:102BD00080915C0290915D020E944F1880915C028E
:102BE00090915D020E94B015609158027091590257
:102BF00080915A0290915B020E947E1580915C0246
:102C000090915D020E948F142FE788E391E021509C
:102C100080409040E1F700C000000E94EB0ADECF48
:102C20000E94A41788F09F5798F0B92F9927B751A1
:102C3000B0F0E1F0660F771F881F991F1AF0BA9560
:102C4000C9F714C0B13091F00E94EC19B1E00895B9
:102C50000C94EC19672F782F8827B85F39F0B93FAB
:102C6000CCF3869577956795B395D9F73EF4909513
:0E2C70008095709561957F4F8F4F9F4F08950F
:102C7E000F931F93CF93DF9385B3886185BB00E0DD
:102C8E0010E010C088EB800F0E949918C0E0D0E0D1
:102C9E0004C080E00E94AF182196C034D105CCF359
:102CAE000F5F1F4F083011056CF380E40E949918D6
:102CBE0088EB0E949918DF91CF911F910F91089583
:102CCE001F920F920FB60F9211242F933F934F9393
:102CDE005F936F937F938F939F93AF93BF93EF9376
:102CEE00FF93E0916800F09169000995FF91EF91D3
:102CFE00BF91AF919F918F917F916F915F914F9106
:0E2D0E003F912F910F900FBE0F901F901895C0
:102D1C001F920F920FB60F9211242F933F934F9344
:102D2C005F936F937F938F939F93AF93BF93EF9327
:102D3C00FF93E0916A00F0916B000995FF91EF9180
:102D4C00BF91AF919F918F917F916F915F914F91B7
:0E2D5C003F912F910F900FBE0F901F90189572
:102D6A001F920F920FB60F9211242F933F934F93F6
:102D7A005F936F937F938F939F93AF93BF93EF93D9
:102D8A00FF93E0916C00F0916D000995FF91EF912E
:102D9A00BF91AF919F918F917F916F915F914F9169
:0E2DAA003F912F910F900FBE0F901F90189524
:102DB8001F920F920FB60F9211242F933F934F93A8
:102DC8005F936F937F938F939F93AF93BF93EF938B
:102DD800FF93E0916400F09165000995FF91EF91F0
:102DE800BF91AF919F918F917F916F915F914F911B
:0E2DF8003F912F910F900FBE0F901F901895D6
:102E06001F920F920FB60F9211242F933F934F9359
:102E16005F936F937F938F939F93AF93BF93EF933C
:102E2600FF93E0916200F09163000995FF91EF91A5
:102E3600BF91AF919F918F917F916F915F914F91CC
:0E2E46003F912F910F900FBE0F901F90189587
:102E54001F920F920FB60F9211242F933F934F930B
:102E64005F936F937F938F939F93AF93BF93EF93EE
:102E7400FF93E0916000F09161000995FF91EF915B
:102E8400BF91AF919F918F917F916F915F914F917E
:0E2E94003F912F910F900FBE0F901F90189539
:102EA2001F920F920FB60F9211242F933F934F93BD
:102EB2005F936F937F938F939F93AF93BF93EF93A0
:102EC200FF93E0916600F09167000995FF91EF9101
:102ED200BF91AF919F918F917F916F915F914F9130
:0E2EE2003F912F910F900FBE0F901F901895EB
:102EF000990F0008550FAA0BE0E8FEEF161617060B
:102F0000E807F907C0F012161306E407F50798F072
:102F1000621B730B840B950B39F40A2661F0232B8B
:102F2000242B252B21F408950A2609F4A140A69507
:082F30008FEF811D811D089542
:102F380057FD9058440F551F59F05F3F71F0479562
:102F4800880F97FB991F61F09F3F79F08795089547
:102F5800121613061406551FF2CF4695F1DF08C066
:102F6800161617061806991FF1CF86957105610583
:042F7800089408951C
:102F7C00FA0160387105CCF0623871051CF06338C9
:102F8C00710599F4A081B1819D012C5F3F4F318374
:102F9C0020834D915D916D917C91FC014083518317
:102FAC006283738381E090E0089580E090E008955F
:102FBC0097FB10F8169400080F93083098F00850FF
:102FCC00232F342F452F562F672F782F892F902D95
:102FDC00F4CF059497958795779567955795479571
:0C2FEC00379527950A95AAF70F910895D4
:102FF8008FEF8ABB84BB85B3886385BB8FE39CE96D
:103008000197F1F700C000008EE30E94991880E450
:103018000E94991888EB0E94991880EC0E949918D0
:083028008FE30E94991808953E
:103030002F923F924F925F926F927F928F929F92C8
:10304000AF92BF92CF92DF92EF92FF920F931F93B6
:10305000CF93DF93CDB7DEB7CA1BDB0B0FB6F89467
:08306000DEBF0FBECDBF0994D5
:103068002A88398848885F846E847D848C849B8410
:10307800AA84B984C884DF80EE80FD800C811B811E
:10308800AA81B981CE0FD11D0FB6F894DEBF0FBE4D
:06309800CDBFED0108951B
:10309E00CF92DF92EF92FF92CF93DF93EC016A0112
:1030AE007B010E94FC170E943F16B701A601CE01BC
:1030BE000E94BA12DF91CF91FF90EF90DF90CF90E8
:0230CE00089563
:1030D000CF92DF92EF926A01E62EDC01280F391FB2
:1030E000A217B30751F0F6014491E7FC40814D93DC
:1030F0004FEFC41AD40AE40AF3CFEF90DF90CF90D9
:02310000089530
:10310200A2E0B0E0E7E8F8E10C9426188C013A83DB
:1031120029839E012F5F3F4F0E948B00F80120817F
:1031220024FF02C08FEF9FEF2296E4E00C94421836
:103132008BBB85B38E7F85BB85B38D7F85BB85B306
:10314200846085BB8DE08A95F1F7000085B38B7FA3
:0C31520085BB8DE08A95F1F70000089520
:10315E008BBB85B3816085BB85B38D7F85BB85B306
:10316E00846085BB8DE08A95F1F7000085B38B7F77
:0C317E0085BB8DE08A95F1F700000895F4
:10318A00CF92DF92EF926B01E82EA82FCB01FC01C0
:10319A002491A7FD2081222319F00196A11DF7CFC2
:0C31AA008C199D09EF90DF90CF900895E4
:1031B6008FB58E7F8FBD8FB582608FBD8EB58860CF
:1031C6008EBD8EB580618EBD61E08DE10E941115C8
:0831D6008FB580688FBD0895DC
:1031DE0097FB072E16F4009407D077FD09D00E94B6
:1031EE00031907FC05D03EF4909581959F4F0895E5
:0831FE00709561957F4F089563
:10320600AA1BBB1B51E107C0AA1FBB1FA617B70706
:1032160010F0A61BB70B881F991F5A95A9F7809522
:083226009095BC01CD01089553
:10322E00A0E0B0E0EDE1F9E10C9428189E01265FD4
:10323E003F4F4F81588569858D819E810E948719E8
:06324E00E2E00C944418BC
:10325400A0E0B0E0E0E3F9E10C9428189E01265FB9
:103264003F4F4F81588569858D819E810E948719C2
:06327400E2E00C94441896
:10327A00092E0394000C11F4882352F0BB0F40F47A
:10328A00BF2B11F460FF04C06F5F7F4F8F4F9F4FBA
:02329A00089595
:10329C0060957095809590953095409550952195B9
:1032AC003F4F4F4F5F4F6F4F7F4F8F4F9F4F089543
:1032BC009A01462FDC01F901549147FD50815D9331
:0C32CC002F5F3F4F4F4F5111F6CF089578
:1032D800689401C0E8948F929F92CF93DF930E94E5
:0C32E8005E13DF91CF919F908F900895AE
:1032F400992777FD05C005900D920197E1F7089590
:0A33040001900D920197E1F7089582
:10330E000F931F9389019A01462F6FEF7FE70E945B
:08331E000C131F910F9108959B
:103326000024A7FD00942A173005400550056005C6
:08333600700580059005089563
:10333E000024A7FD00942A0F301D401D501D601D56
:08334E00701D801D901D089503
:10335600EC010E94201A0E941F1ACE010E94211A17
:06336600CE010E941D1AB9
:10336C00FC01480F591FE417F50711F06193FBCFCF
:02337C000895B2
:10337E009C01215631092A31310510F48F75992798
:02338E000895A0
:103390009C01215431092A31310508F480620895D5
:0E33A0005058BB27AA270E9496110C943D1985
:0E33AE000E9410166894B1110C94ED19089548
:0E33BC0000240A94161617061806090608952E
:0E33CA0000240A941216130614060506089530
:0E33D800E894BB2766277727CB0197F9089565
:0C33E60097F99F6780E870E060E00895B0
:0A33F2000E94781708F481E00895A6
:0A33FC000E94781708F48FEF08957F
:083406008EB582608EBD0895B1
:08340E000E94E70F0C943D1928
:083416000E94C2100C943D1944
:06341E009BBD8ABD08956C
:0634240097BD86BD08956E
:06342A009FEF80EC089505
:0634300080E090E0089529
:043436000C940000F2
:04343A000E94580094
:02343E000895EF
:023440000895ED
:023442000895EB
:10344400000000000000005F0000000700070018F3
:1034540018181818FF3C7EDB992313086462404057
:103464007E02020202020202404040404002027E0A
:10347400404014083E081408083E08080050300074
:103484000008080808080060600000201008040212
:103494003E5149453E00427F400042615149462128
:1034A40041454B311814127F1027454545393C4A94
:1034B40049493001710905033649494936064949E4
:1034C400291E00363600000056360000081422413A
:1034D40000141414141400412214080201510906A2
:1034E40099DB7E3CFF7E1111117E7F494949363EAE
:1034F400414141227F4141221C7F494949417F0981
:103504000909013E4149497A7F0808087F00417F43
:1035140041002040413F017F081422417F40404048
:10352400407F020C027F7F0408107F3E4141413EF0
:103534007F090909063E4151215E7F091929464642
:103544004949493101017F01013F4040403F1F206B
:1035540040201F3F4038403F63140814630708703D
:1035640008076151494543007F41410002040810A6
:10357400200041417F0004020102044040404040D9
:10358400000102040020545454787F4844443838DD
:1035940044444420384444487F3854545418087EE2
:1035A4000901020C5252523E7F0804047800447D03
:1035B40040002040443D007F1028440000417F40EB
:1035C400007C041804787C080404783844444438A3
:1035D4007C14141408081414187C7C080404084887
:1035E40054545420043F4440203C4040207C1C2040
:1035F40040201C3C4030403C44281028440C50508F
:10360400503C4464544C44000836410000007F00A0
:103614000000413608001008081008784641467832
:083624003A00370034003100C8
:04362C0000008C42CC
:02363000640034
:00000001FF
