:100000000C9430000C9438160C9438160C94381656
:100010000C9438160C9438160C9405130C942C136D
:100020000C9453130C947A130C94DE120C94B712A4
:100030000C9438160C9438160C9438160C94381608
:100040000C9438160C9438160C9438160C943816F8
:100050000C9438160060007A80007A0266002C82C8
:1000600011241FBECFE5D8E0DEBFCDBFE4E5F0E050
:1000700040E017C0B591A59135912591059107FDF7
:100080000CC095918591EF01F92FE82F05900D9205
:10009000A217B307D9F7FE0104C01D92A217B30738
:1000A000E1F7E036F40731F70E942F120C94C715E0
:0400B000F894FFCFF2
:1000B4004672657175656E63793A20252E32666BDA
:1000C400487A00447574793A20252E32660025005A
:1000D400240026002700290028002300400054693A
:1000E4006D653A252E33666D73004F5554204F4687
:0900F4002052414E474521210034
:1000FD0068076C094C836A9074A07AC00080688888
:06010D0000846C820081F9
:10011300494E4600696E66004E414E006E616E00A8
:06012300286E696C290042
:10012A00A3EAB0E0EBE9F0E00C947F144C0159012A
:10013A00C756DF4F488359836A83C959D040212C57
:10014A00312C6E012BE8C20ED11C85E2782E2601D5
:10015A0030E8632ECE018D569F4FC456DF4F9983E8
:10016A008883CC59D0409C0140E8CF55DF4F288383
:10017A0039834A83C15AD040C756DF4F4881C9598B
:10018A00D040C656DF4F5881CA59D040C556DF4FB6
:10019A006881CB59D040FA01849167FD8081882318
:1001AA0009F4C9C3CF57DF4F19821882C158D0400A
:1001BA008FEF9FEFCD57DF4F99838883C358D04085
:1001CA00CB57DF4F19821882C558D040A1E0B0E062
:1001DA00AC0FBD1FC957DF4FB983A883C758D0409A
:1001EA00E0E8F0E0C757DF4FF983E883C958D04009
:1001FA00CA01A62FE12CF12CFC012491A7FD208134
:10020A0021111BC0E114F10401F19701C4010E94FC
:10021A00C811C756DF4F88819981AA81C959D04030
:10022A008E0D9F1DA11DF7FCAA95C756DF4F888327
:10023A009983AA83C959D04008C00196A11D2532C5
:10024A0009F3FFEFEF1AFF0AD7CFC756DF4F8881AE
:10025A009981AA81C959D040FC012491A7FD208126
:10026A00253209F056C39C014A2F2F5F3F4F4F4F4B
:10027A00C256DF4F288339834A83CE59D040C756A6
:10028A00DF4F288339834A83C959D040C756DF4F85
:10029A0088819981AA81C959D040FC012491A7FD7E
:1002AA0020812B3241F4CF57DF4F28813981C15841
:1002BA00D04024600BC02C32CCF02D3259F5CF57E8
:1002CA00DF4F28813981C158D0402160CF57DF4F95
:1002DA0039832883C158D0400196A11DC756DF4FE4
:1002EA0088839983AA83C959D040D0CF203241F458
:1002FA00CF57DF4F28813981C158D0402860E6CFD7
:10030A00233291F4CF57DF4F28813981C158D04029
:10031A002061DCCF203341F4CF57DF4F2881398168
:10032A00C158D0402260D2CF2A3299F50196A11D38
:10033A00C756DF4F88839983AA83C959D040D5010C
:10034A00ED91FC911197CF0102968D939C93808138
:10035A009181CB57DF4F99838883C558D04097FF47
:10036A003EC0CF57DF4F28813981C158D040B1E014
:10037A002B27CF57DF4F39832883C158D040919517
:10038A0081959109CB57DF4F99838883C558D0400F
:10039A0026C0BC018A2F0E948F10CB57DF4F99834A
:1003AA008883C558D040C756DF4F288139814A8192
:1003BA00C959D040F901849147FD8081082E000C6B
:1003CA00990BC0970A9758F42F5F3F4F4F4FC75664
:1003DA00DF4F288339834A83C959D040E4CFCF57A6
:1003EA00DF4F88819981C158D04080FF07C08D7F37
:1003FA00CF57DF4F99838883C158D040C756DF4F04
:10040A0088819981AA81C959D040FC012491A7FD0C
:10041A0020812E3209F058C0CD57DF4F1982188239
:10042A00C358D0409C014A2F2F5F3F4F4F4FC756AA
:10043A00DF4F288339834A83C959D040F90154913F
:10044A0047FD50815A32D1F40296A11DC756DF4F9B
:10045A0088839983AA83C959D040D501ED91FC912B
:10046A001197CF0102968D939C9380819181CD57EC
:10047A00DF4F99838883C358D04026C0842FB9019F
:10048A000E948F10CD57DF4F99838883C358D0407D
:10049A00C756DF4F288139814A81C959D040F901AD
:1004AA00849147FD8081082E000C990BC0970A970A
:1004BA0058F42F5F3F4F4F4FC756DF4F288339837A
:1004CA004A83C959D040E4CFCE0187569F4F0E9434
:1004DA00F70F182FC756DF4F2881C959D040C65683
:1004EA00DF4F8881CA59D040C556DF4F9881CB5912
:1004FA00D040E22FF82F849197FD8081082E000CBE
:10050A00990B0E94E5158936910509F45AC0B4F48D
:10051A008336910509F466C144F48532910509F4DC
:10052A00A1C18136910529F1B3C18436910509F437
:10053A0048C0883691050CF42DC1AAC180379105AF
:10054A0009F4CBC04CF48E36910509F419C18F36E3
:10055A00910509F47CC09CC18537910509F454C002
:10056A008837910509F496C08337910509F090C13F
:10057A0058C1612F70E0A501C6010E940914892B98
:10058A0009F4B7C1C756DF4F88819981AA81C95931
:10059A00D0409C014A2F2F5F3F4F4F4FC756DF4F26
:1005AA00288339834A83C959D040FC012491A7FD85
:1005BA002081A601BE016F577F4FC4010E943216E7
:1005CA0095C1612F70E0950141E050E0C6010E949B
:1005DA00F20A892B09F48DC1C756DF4F88819981A8
:1005EA00AA81C959D0400196A11DC756DF4F8883F9
:1005FA009983AA83C959D040A601BE016F577F4F7C
:10060A00C4010E942F1672C1612F70E0950140E06B
:10061A0050E0C6010E94F20A892B09F46AC1C75642
:10062A00DF4F88819981AA81C959D0400196A11DBD
:10063A00C756DF4F88839983AA83C959D040A60138
:10064A00BE016F577F4FC4010E942F164FC1612F01
:10065A0070E0950140E050E0C6010E94F20A892B41
:10066A0009F447C1C756DF4F88819981AA81C959C0
:10067A00D0400196A11DC756DF4F88839983AA836C
:10068A00C959D040A601BE016F577F4FC4010E94CD
:10069A002F162CC1612F70E0950140E050E0C60191
:1006AA000E94F20A892B09F424C1C756DF4F8881B8
:1006BA009981AA81C959D0409C014A2F2F5F3F4F87
:1006CA004F4FC756DF4F288339834A83C959D040D1
:1006DA00FC012491A7FD20814BC0950140E050E028
:1006EA0060EF70E0C6010E94F20A892B09F401C189
:1006FA00C756DF4F88819981AA81C959D04001968E
:10070A00A11DC756DF4F88839983AA83C959D04050
:10071A0086E023E231E040E0F901DE01AD56BF4F49
:10072A00742F0E949615D6012C9111963C9111971F
:10073A0012964C91129713965C91139714966C919A
:10074A00149715967C91159716968C91169717966D
:10075A009C91A0E00E94AF1551F400E010E0CF5543
:10076A00DF4F288139814A81C15AD040B9C028E770
:10077A00A601BE016F577F4FC4010E943216B6C050
:10078A00612F70E09501A1014E0D5F1DC6010E9407
:10079A00680EAFC0612F70E0A501C6010E9409145E
:1007AA00892B09F4A6C0C756DF4F88819981AA818F
:1007BA00C959D0409C014A2F2F5F3F4F4F4FC75610
:1007CA00DF4F288339834A83C959D040FC012491D9
:1007DA00A7FD2081A601BE016F577F4FC4010E9469
:1007EA00A60484C0103809F084C0C756DF4F888138
:1007FA009981AA81C959D0400196A11DC756DF4FD8
:10080A0088839983AA83C959D040D501ED91FC9177
:10081A001197CF0102968D939C938081F601808374
:10082A005BC0103809F065C0C756DF4F88819981CF
:10083A00AA81C959D0400196A11DC756DF4F8883A6
:10084A009983AA83C959D040D501ED91FC9111979A
:10085A00CF0103968D939C9320813181428100E0E0
:10086A0010E03EC0103809F044C0C756DF4F8881F7
:10087A009981AA81C959D0400196A11DC756DF4F57
:10088A0088839983AA83C959D040F601708224C00B
:10089A00D6017C92C256DF4F288139814A81CE59CE
:1008AA00D040C756DF4F288339834A83C959D0407D
:1008BA00CF57DF4F19821882C158D040CB57DF4F2C
:1008CA0019821882C558D0408FEF9FEFCD57DF4F5E
:1008DA0099838883C358D04001E010E0462D9201E5
:1008EA00BE016F577F4FC4010E9435168E0D9F1DA2
:1008FA0011C0C756DF4F88819981AA81C959D04052
:10090A000196A11DC756DF4F88839983AA83C959C7
:10091A00D040C7017101E80EF91EE214F3044CF449
:10092A008FE490E090937900809378008FEF9FEFA7
:10093A0003C0170121CCC101CD55DF4FE2E10C9470
:02094A009B14FC
:10094C00A6E2B0E0ECEAF4E00C947F149F8F8E8F5B
:10095C00798F688F122FFB010190F081E02DFA87BF
:10096C00E987FB01C280D380248135813C8B2B8BA2
:10097C008085918599A388A30680F781E02DFA8361
:10098C00E983FA0180809180A280B38020E030E07E
:10099C00A901C501B4010E94161687FF06C0B7FA5B
:1009AC00B094B7F8B0948DE204C0F985F2FF0CC393
:1009BC008BE2E981FA8180832B893C8921503109B2
:1009CC0038872F8341E050E05A8B498B06C08B89C6
:1009DC009C8998878F831A8A198AD501C401BF779D
:1009EC000097E0E8AE07EFE7BE07D9F4212F110F0F
:1009FC00330B2154310989819A8149895A89840F91
:100A0C00951F2A31310520F443E151E060E003C029
:100A1C0047E151E060E00E94881567E171E080E0F9
:100A2C001EC00197A048BF4730F1212F110F330B87
:100A3C002154310989819A8149895A89840F951FDA
:100A4C002A31310520F44BE151E060E003C04FE165
:100A5C0051E060E00E9488156FE171E080E00E9437
:100A6C001315E981FA81AF0160E8E984FA840B89F6
:100A7C001C899C01A1C220E030E0A901C501B40190
:100A8C000E9416161B821C82882309F467C0F0E8AA
:100A9C00FD832FE32E83212C312C20E030E040E22B
:100AAC0051E46B817C818D819E810E942816F62EEB
:100ABC00072F8D879B87A50194010E941B16181682
:100ACC0054F03FEF231A330AFB820C834D854D8380
:100ADC005B855E83E2CF1C861B862B813C814D811E
:100AEC005E81C501B4010E94161687FF3DC084EDDE
:100AFC0028168EEF380604F5EB85FC85EF2BE1F418
:100B0C0020E030E040E85AE5C501B4010E94281607
:100B1C004B015C0120E030E040E85AE56B817C81C0
:100B2C008D819E810E9428166B837C838D839E838E
:100B3C0021E030E03C872B8720E030E040E251E4BC
:100B4C006B817C818D819E810E9424166B837C83BA
:100B5C008D839E8331E0231A3108BFCF40E84D834B
:100B6C005FE35E83212C312C812F110F990B9BA3FA
:100B7C008AA30E94E5158B8FD7FC03C0DEA2CDA201
:100B8C0004C0E6E0F0E0FEA3EDA3FB8DF73641F4E4
:100B9C00CD2809F01EC221E030E03EA32DA319C2DE
:100BAC008B8D8D8B04C037FE25C296E69D8BEDA1F7
:100BBC00FEA13196FEA3EDA3FD89F63699F437FE1E
:100BCC0008C01B821C8220E82D833FE33E83212C2E
:100BDC00312C4B8D473631F08DA19EA1820D931D8A
:100BEC009EA38DA39B819B87EC81ED87FD81FE8B62
:100BFC002E812A8F750164011D8E1C8E8C8D9D8D0E
:100C0C00EDA1FEA18E179F07C1F12B853D854E8965
:100C1C005A8DC701B6010E9424160E94490C2B0163
:100C2C003C010E94F4156CA38701760117FB10950B
:100C3C0017F910952B853D854E895A8DC301B2014C
:100C4C000E94AB0B6B017C01F7FAF094F7F8F0946F
:100C5C0020E030E040E251E46B857D858E899A8DF1
:100C6C000E9424166B877D878E8B9A8F4C8D5D8DA1
:100C7C004F5F5F4F5D8F4C8FC1CF20E030E040EA7B
:100C8C0050E46B857D858E899A8D0E9428162B01E8
:100C9C003C019B01AC01C701B6010E94161687FDF1
:100CAC000BC0A3019201C701B6010E941616811157
:100CBC0006C0FCA1F0FD03C0412C512C3201A30154
:100CCC009201C501B4010E94EE154B015C012D8906
:100CDC00253611F0310102C0612C712C23014DA17C
:100CEC005EA1441A550AC988DA8800E010E01C8617
:100CFC001B8689859A85807199279F8B8E8B6414AE
:100D0C00750431F48B859C85892B09F49AC0A6C097
:100D1C00DD8ECC8EE88DF98D808591850597C81672
:100D2C00D90680F72B813C814D815E81C501B401D0
:100D3C000E9424160E94490C6D877E878F87988BA2
:100D4C000E94F415CB01EE89FF89EF2B69F4892BF6
:100D5C0059F4FB8DF73641F477FE06C098012F5FEE
:100D6C003F4F3D8F2C8F43C04B855C85452BB1F499
:100D7C0077FE14C05FEFC51AD50AE981FA818C8D14
:100D8C009D8DE80FF91F9EE29083EF81F8853197D6
:100D9C00F887EF8321E030E03C872B87E981FA81EB
:100DAC00EC0DFD1D1D8F0C8F8C8D9D8D892B49F0AD
:100DBC0030E331934C8D5D8D415051095D8F4C8FDB
:100DCC00F3CFC8018C0D9D1D2F813885201B310B55
:100DDC006C01EFEFCE1ADE0AE981FA81E80FF91FF8
:100DEC00605D6083A9014150510958874F8385018B
:100DFC00740117FB109517F910952B813C814D81CF
:100E0C005E816D857E858F8598890E94AB0B4B0129
:100E1C005C01B7FAB094B7F8B09420E030E040E24F
:100E2C0051E46B817C818D819E810E9424166B83A1
:100E3C007C838D839E8351E0651A71080C8D1D8D0A
:100E4C005ECFF985F4FF0AC0E981FA81EC0DFD1D36
:100E5C008EE2808396012F5F3F4F690149815A8151
:100E6C004C0D5D1D5C874B87FA011082FD89F536B0
:100E7C0009F061C0E981FA8128A139A1E20FF31FC1
:100E8C003197108237FE06C031942194310801E06D
:100E9C0010E002C000E010E0E8A1F9A1319749810F
:100EAC005A81E40FF51F22E030E08AE0E82EF12CA5
:100EBC00CF0149815A81841B950B2114310479F09F
:100ECC00C101B7010E942915805D82931B0121503D
:100EDC0031098F819885019798878F83E9CF1216F6
:100EEC00130674F3FC013197E40FF51F012B11F479
:100EFC002BE201C02DE220830297E981FA81E80FF1
:100F0C00F91F2AA13BA1215431092A31310510F0D6
:100F1C0025E601C025E420832F8138852250310934
:100F2C0038872F83C816D90634F4AF0160E88B8557
:100F3C009C850E94881549815A813A0180E8882E47
:100F4C00998591FF2EC090FD2CC0EF81F8851E165F
:100F5C001F063CF5882DB3010E94131529813A8197
:100F6C00820F931F9C0149815A81241B350BE989FF
:100F7C00FA892E173F074CF0FC012081EF81F88590
:100F8C00E80FF91F20830197EDCF4F81588560E35F
:100F9C0070E089819A818E0F9F1F0E94DC151C8A3C
:100FAC001B8A882DB3010E941315E984FA840B89DE
:100FBC001C899C01682DA3018E8D9F8D0E94720D42
:100FCC00A696E2E10C949B14598553FF00CD80E268
:100FDC00F0CC2CEF22162FEF32064CF04DA15EA177
:100FEC00241635060CF4DFCD55E65D8BFBCD35E6CE
:0A0FFC003D8BF8CD46E64D8BF5CD98
:101006002F923F924F925F926F927F928F929F9212
:10101600AF92BF92CF92DF92EF92FF920F931F9300
:10102600CF93DF93CDB7DEB72D970FB6F894DEBF1B
:101036000FBECDBF49875A876B87482F50E0588728
:101046004F83CA0188549F4F9A838983211107C011
:1010560025B3286025BB25B32F7E25BB06C025B347
:10106600206125BB25B3277F25BB0E94E714812C71
:10107600312C212C0F2EFFE3FF2EF02D412C512C6D
:10108600A12CB12C9F2C5EC16F80788471946194E1
:1010960071087694762C66247794679455E0651AE1
:1010A6005CEF750A6414750408F45AC1803209F0BD
:1010B60049C05EC0C801840D951D9D878C8720E0C0
:1010C60030E040E05FE3682D732D822D9B2D0E945A
:1010D600EE15F62EA72E782E992E0E94F4157695EB
:1010E600762F6627779567952C853D8526173707D2
:1010F60031F505301105B9F180E40E94E71495B386
:1011060088E0892785BB95B380E1892785BB49811E
:101116005A81BA0180E090E00E941711282D332DE4
:10112600422D5B2D0E94EE150E946012862F0E94B2
:10113600E7148F2C3A2C272CB92C4C845D840F5F36
:101146001F4F07C001E010E0BC82AB827E826D8239
:10115600B92C0630110508F4ADCF6D807E809B2C2E
:10116600AB80BC8005C06D807E809B2CAB80BC8034
:101176006414750408F4F4C0F6018491E7FC8081D8
:10118600803209F44FC01C821B82A1C0F6018491F3
:10119600E7FC808190E08097FC01EE0FFF1FEE0FC9
:1011A600FF1FE80FF91FE658FF4F2B813C81E20F26
:1011B600F31F80810E94FD143FEF431A530AC201B8
:1011C6008F739927892B41F595B388E0892785BBCD
:1011D60095B380E1892785BB49815A81BA0180E0B0
:1011E60090E00E941711282D332D422D592D0E9473
:1011F600EE150E946012862F0E94E71420E030E070
:1012060040E05FE3682D732D822D992D0E94EE1527
:10121600862E372E282E992E8B819C8101969C83B3
:101226008B8302C01C821B824B815C814530510539
:1012360008F4ACCF84C0F6018491E7FC808190E08D
:101246008097FC01EE0FFF1FEE0FFF1FE80FF91F3F
:10125600E658FF4F8B819C81E80FF91F80810E9421
:10126600FD149FEF491A590AC2018F739927892BDA
:1012760041F595B388E0892785BB95B380E1892739
:1012860085BB29813A81B90180E090E00E9417115F
:10129600282D332D422D592D0E94EE150E946012E5
:1012A600862F0E94E71420E030E040E05FE3682DDF
:1012B600732D822D992D0E94EE15862E372E282EFF
:1012C600992E4B815C814F5F5F4F5C834B838B8193
:1012D6009C81059708F4AFCF80E00E94FD149FEF34
:1012E600491A590AC2018F739927892B41F595B37B
:1012F60088E0892785BB95B380E1892785BB29814D
:101306003A81B90180E090E00E941711282D332D13
:10131600422D592D0E94EE150E946012862F0E94C2
:10132600E71420E030E040E05FE3682D732D822D66
:10133600992D0E94EE15862E372E282E992E3FEFD8
:10134600A31AB30AC984DA84EB84CA0CDB1CE11C39
:10135600B7FCEA94F6018491E7FC8081811194CE72
:1013660080E40E94E7142D960FB6F894DEBF0FBEF8
:10137600CDBFDF91CF911F910F91FF90EF90DF903E
:10138600CF90BF90AF909F908F907F906F905F901F
:081396004F903F902F90089545
:10139E007F928F929F92AF92BF92CF92DF92EF92F7
:1013AE00FF920F931F93CF93DF93CDB7DEB7E797DF
:1013BE000FB6F894DEBF0FBECDBF60916202709182
:1013CE00630280916402909165020E946012062F62
:1013DE00FE0131968FE0DF011D928A95E9F70190AB
:1013EE000020E9F722E030E044ED50E060E0CF016C
:1013FE0001970E94B614FE017096DF010D90002039
:10140E00E9F7CD0122E030E046ED50E060E00197D3
:10141E000E94B614712CE12CF12CC12CD12C72C06F
:10142E00FE017096DF010D900020E9F7CD0122E05C
:10143E0030E048ED50E060E001970E94B614BFEF37
:10144E00CB1ADB0AEFEF8E1A9E0AAE0ABE0A03C053
:10145E00812C912C54011DEC019F112D11241695F8
:10146E0016951695812F90E0A0E0B0E088169906AB
:10147E00AA06BB06A8F2FE017096DF010D900020B1
:10148E00E9F7CD0122E030E04AED50E060E001974F
:10149E000E94B614812C912C540117C0FE01709637
:1014AE00DF010D900020E9F7CD0122E030E04CED98
:1014BE0050E060E001970E94B614BFEFEB1AFB0AF2
:1014CE00EFEF8E1A9E0AAE0ABE0A8AE090E0811BEA
:1014DE009109092E000CAA0BBB0B88169906AA06B9
:1014EE00BB06E0F2FE017096DF010D900020E9F7D9
:1014FE00CD0122E030E046ED50E060E001970E9421
:10150E00B6147394B1E0B71508F0A2CFEC0CFD1C25
:10151E00FF201CF4EFEFEE1AFE0AF594E79412C0CA
:10152E00FE013196DF010D900020E9F7CD0122E09A
:10153E0030E04EED50E060E001970E94B614B1E04D
:10154E00EB1AF1081E141F045CF38E010F5F1F4F80
:10155E00F80101900020E9F7CF0122E030E040EEE3
:10156E0050E060E001970E94B614A80160E820E008
:10157E0086E00E94030820E010C0822F90E0FC015C
:10158E003B9640E150E04C0F5D1FE40FF51F30819C
:10159E00FA01E80FF91F30832F5F2E3170F3AE0181
:1015AE00405F5F4F60E820E087E00E940308E79607
:1015BE000FB6F894DEBF0FBECDBFDF91CF911F9156
:1015CE000F91FF90EF90DF90CF90BF90AF909F90D4
:0615DE008F907F9008953C
:1015E4000F931F93CF93DF93FC01D90168387105E2
:1015F40031F194F461387105B1F12CF4603871055E
:1016040009F478C09FC06238710509F459C0643880
:10161400710509F46FC096C0603A710509F448C0B9
:101624002CF46039710509F44BC08CC0603C710521
:1016340009F476C0603F710509F472C083C0CD918E
:10164400DC911197CE0102968D939C93452B39F032
:101654009881892F880F880B908381835BC0888150
:101664008083118268C0CD91DC911197CE010496DC
:101674008D939C93452B99F088819981AA81BB8194
:10168400AC01BD01770F440B542FBA0180839183C1
:10169400A283B383448345834683478328C0088158
:1016A40019812A813B81008311832283338345C0BE
:1016B400CD91DC911197CE0102968D939C9323C01A
:1016C400CD91DC911197CE0108968D939C937881EE
:1016D40069815A814B813C812D819E818F817083E8
:1016E400618352834383348325839683878381E094
:1016F40090E02AC0CD91DC911197CE0102968D9392
:101704009C93452BA1F099812881892F880F880B00
:101714002083918382838383848385838683E6CF36
:10172400CD91DC911197CE0102968D939C93088103
:101734001981008311831282138214821582168206
:101744001782D5CF80E090E0DF91CF911F910F9168
:021754000895F6
:10175600A5E1B0E0E1EBFBE00C947F1447015801F2
:101766000E9428162B013C01A80197010E94EE1544
:10177600162FC72ED82EF92E862F9C2DAD2DBF2DB8
:1017860089839A83AB83BC83AA81FB81EC81ED803C
:101796003E802F8008850D8B5E2F5F71212F3A2F9B
:1017A6004F2F60E070E080E090E0211531054105A3
:1017B60000E15007610571058105910509F05EC0DC
:1017C6005E2F6E2D732D822D9D8904E30E942B14AE
:1017D6002D873E874F87588B698B7A8B8B8B9C8B9B
:1017E6008D859E8597708F3F974009F447C0A3016A
:1017F6009201612F7C2D8D2D9F2D0E94ED159B0151
:10180600AC01C501B4010E9416168823B9F14986B8
:101816005A866B867C8629853A854B855C85C5010B
:10182600B4010E94EE15B62E872E982EA92E262FCD
:10183600372F482F592F612F7C2D8D2D9F2D0E94DC
:101846001616811118C02B2D8B2D982DA92DBA2D6A
:1018560089839A83AB83BC833A814B815C816E2DED
:10186600732D822D9D89A1E00E94BB15122FC32ED8
:10187600D42EF52E03C01B2D6401FA2C612F7C2D6E
:0C1886008D2D9F2D6596E2E10C949B14C3
:101892004F925F926F927F928F929F92AF92BF927E
:1018A200CF92DF92EF92FF92CF93DF93CDB7DEB765
:1018B20028970FB6F894DEBF0FBECDBF6B017C0137
:1018C200DC01CB0147E1B695A795979587954A9597
:1018D200D1F799278F579109873191059CF597FD8B
:1018E20036C088248A94982C3FE7A32EB12C04C0DA
:1018F200B594A794979487948A95D2F7D501C40199
:101902008C219D21AE21BF21892B8A2B8B2BD1F0DB
:1019120020E030E040E85BE7C701B6010E94EE1527
:101922006D837E838F839887F7FE04C0C80CD91C11
:10193200EA1CFB1C80949094A094B094C820D920F7
:10194200EA20FB205C2D4D2D3E2D2F2D21C020E0C5
:1019520030E040E85BE7C701B6010E94EE156983FB
:101962007A838B839C83F7FE0FC0D701C601880F51
:10197200991FAA1FBB1F892B8A2B8B2B19F350E0AF
:1019820040E030E82FEB04C050E040E030E020E0DF
:10199200652F742F832F922F28960FB6F894DEBFEF
:1019A2000FBECDBFDF91CF91FF90EF90DF90CF9030
:1019B200BF90AF909F908F907F906F905F904F906D
:0219C200089586
:1019C4008F929F92AF92BF92CF92DF92EF92FF924B
:1019D400CF93DF931FBC1DBC1CBC80E288BF81E495
:1019E4008EBD08B605FEFDCF86B597B520E228BFAB
:1019F40021E42EBD08B605FEFDCFC6B4D7B420E25F
:101A040028BF21E02EBD08B605FEFDCFC6B5D7B56B
:101A140020E228BF1EBC8C159D0508F044C0CC16DE
:101A2400DD0608F040C0CC19DD09C81AD90AE12C3A
:101A3400F12C60E072E18AE790E0A70196010E9430
:101A4400E713CA01B9010E94171120E030E04AE708
:101A540054E40E9424166093660070936700809398
:101A6400680090936900BE0180E090E00E94171125
:101A74004B015C01C701B6010E9417119B01AC0127
:101A8400C501B4010E94241620E030E048EC52E481
:101A94000E94281660936E0070936F00809370000C
:101AA4009093710009C00E948F1220E04EEE50E026
:101AB40060E081E00E9403082FE788E391E0215071
:101AC40080409040E1F700C00000DF91CF91FF908B
:101AD400EF90DF90CF90BF90AF909F908F9008953C
:101AE4002F923F924F926F927F928F92AF92BF92BA
:101AF400CF92DF92EF92FF920F931F93CF93DF93D6
:101B0400CDB7DEB766970FB6F894DEBF0FBECDBF74
:101B14005C013A01862E6901C701817099279C8B6B
:101B24008B8BE0FC1DC020173107D4F47801EC182E
:101B3400FD08FE8AED8AA70191E1E916F10410F08F
:101B440040E150E060E270E0CE0101969A8B898B0F
:101B54000E94DC1589899A891C0120E8422E0BC059
:101B64009601682DA301C5010E94C811C016D106B3
:101B7400ECF2C60125C090E1E916F10458F020E129
:101B840030E0642DA101C5010E94C81180E1E81A6A
:101B9400F108F1CF2D893E892F70332789899A89DD
:101BA400AC0160E8C5010E94C8118B899C89892B0E
:101BB40031F49601682DA301C5010E94C811C80122
:101BC40066960FB6F894DEBF0FBECDBFDF91CF91FE
:101BD4001F910F91FF90EF90DF90CF90BF90AF9047
:0E1BE4008F907F906F904F903F902F900895BC
:101BF20010C00E94021658F00E94FB1540F029F412
:101C02005F3F29F00C94101651110C940A160C9493
:101C12002C160E94C51368F39923B1F3552391F34F
:101C2200951B550BBB27AA2762177307840738F049
:101C32009F5F5F4F220F331F441FAA1FA9F335D0A6
:101C42000E2E3AF0E0E832D091505040E695001C5A
:101C5200CAF72BD0FE2F29D0660F771F881FBB1F14
:101C6200261737074807AB07B0E809F0BB0B802DF2
:101C7200BF01FF2793585F4F3AF09E3F510578F01E
:101C82000C9410160C940A165F3FE4F3983ED4F3BA
:101C9200869577956795B795F7959F5FC9F7880FF2
:101CA200911D9695879597F90895E1E0660F771F44
:101CB200881FBB1F621773078407BA0720F0621BD5
:0E1CC200730B840BBA0BEE1F88F7E0950895A4
:101CD000CF93DF93DC01F90164387105D9F164F425
:101CE0006138710521F16238710509F440C060382E
:101CF000710509F054C02EC060397105C1F184F43A
:101D00006838710509F04BC0C081D181CE010296BF
:101D100091838083E881F981ED93FC9340833CC0FB
:101D2000603A7105B9F0603C7105A1F038C0C0811E
:101D3000D181CE01029691838083E881F981ED9370
:101D4000FC93052E000C660B770B40835183628356
:101D5000738322C0C081D181CE010296918380839A
:101D6000E881F981ED93FC935183408315C0C081D4
:101D7000D181CE01029691838083E881F981ED9330
:101D8000FC9351834083852F880F880B8283838344
:101D9000848385838683878381E090E002C080E02E
:081DA00090E0DF91CF9108955E
:101DA8000FC00E94FB1538F00E94021620F0952300
:101DB80011F00C9410160C942C1611240C940A167D
:101DC8000E94C51370F3959FC1F3950F50E0551FFE
:101DD800629FF001729FBB27F00DB11D639FAA2778
:101DE800F00DB11DAA1F649F6627B00DA11D661FC7
:101DF800829F2227B00DA11D621F739FB00DA11DE8
:101E0800621F839FA00D611D221F749F3327A00DA1
:101E1800611D231F849F600D211D822F762F6A2F3D
:101E280011249F5750409AF0F1F088234AF0EE0FA2
:101E3800FF1FBB1F661F771F881F91505040A9F7CF
:101E48009E3F510580F00C9410160C940A165F3FC3
:101E5800E4F3983ED4F3869577956795B795F7950B
:101E6800E7959F5FC1F7FE2B880F911D9695879583
:041E780097F9089539
:101E7C0011C00E94FB1538F00E94021620F039F4B4
:101E8C009F3F19F426F40C942C160EF4E095E7FB06
:101E9C000C941016E92F0E94C51358F3BA17620759
:101EAC0073078407950720F079F4A6F50C940916AE
:101EBC000EF4E0950B2EBA2FA02D0B01B901900159
:101ECC000C01CA01A0011124FF27591B99F0593F9D
:101EDC0050F4503E68F11A16F040A22F232F342FE5
:101EEC004427585FF3CF469537952795A795F04033
:101EFC005395C9F77EF41F16BA0B620B730B840B48
:101F0C00BAF09150A1F0FF0FBB1F661F771F881FFF
:101F1C00C2F70EC0BA0F621F731F841F48F4879557
:101F2C0077956795B795F7959E3F08F0B0CF939549
:0E1F3C00880F08F09927EE0F97958795089566
:101F4A006F927F928F92EF92FF920F931F93CF938C
:101F5A00DF93CDB7DEB761970FB6F894DEBF0FBE39
:101F6A00CDBFFE01319651E1DF011D925A95E9F785
:101F7A00A2E0B1E0BA83A9839C838B8377FF09C06F
:101F8A008FE490E090937900809378008FEF9FEF31
:101F9A0019C03901842E7C01615071097F836E83D7
:101FAA009801682DA301CF010E94CF144885598555
:101FBA002E813F814217530708F49A01F701E20F75
:101FCA00F31F108261960FB6F894DEBF0FBECDBF25
:101FDA00DF91CF911F910F91FF90EF908F907F909B
:041FEA006F90089557
:101FEE00CF92DF92EF92DC0190E0292F30E0220FAA
:101FFE00331F6901032E000CEE086E2DA60143500F
:10200E005F4F6F4F6A01E62EFA018491E7FC8081E3
:10201E0081110DC02F5F3F4F032E000C440B235038
:10202E003F4F4F4FF901849147FD808124C0CD90E1
:10203E00DD90EC901297F6014491E7FC40818413F9
:10204E0015C02F5F3F4F032E000C440B23503F4F04
:10205E004F4FF901949147FD90815FEFC51AD50A54
:10206E00E50ACD92DD92EC92129701C09F5F9B30F4
:0E207E0008F4BBCF892FEF90DF90CF9008952C
:10208C000F931F93CF93DF93DB012D913C9111970D
:10209C0030FF25C017964D915C91189715962D9190
:1020AC003C9116974217530778F41296ED91FC91D8
:1020BC001397808312962D913C9113972F5F3F4F6E
:1020CC0013963C932E93129717962D913C9118973B
:1020DC002F5F3F4F18963C932E93179715C01D9664
:1020EC00ED91FC911E97309719F48FEF9FEF0CC078
:1020FC008B01EC010995892BC1F7F801878190853B
:10210C00019690878783CE01DF91CF911F910F911C
:02211C00089524
:10211E00CF939B01482FF901849147FD8081803236
:10212E00C9F1682F082E000C770B695071096530C4
:10213E00710580F18B3249F5A0E0B0E02F5F3F4F83
:10214E004F4F02C0A0E0B0E080E090E0CAE0F9019D
:10215E00649147FD6081062E000C770B6053710968
:10216E006A30710560F4C89FF001C99FF00D11240B
:10217E002F5F3F4F4F4FCF01861B970BE8CFAB2BF7
:10218E0069F491958195910909C08D32D9F6A1E036
:10219E00B0E0D4CF2F5F3F4F4F4FBDCFCF910895BB
:1021AE000F931F93CF93DF93CDB7DEB7E2970FB6A2
:1021BE00F894DEBF0FBECDBF9F938F937F936F9327
:1021CE0087EC90E0A0E0AF939F938F938E010F5F0B
:1021DE001F4F1F930F930E946415F801019000206A
:1021EE00E9F7CF0122E030E042ED50E060E00197E8
:1021FE000E94B614A80160E820E081E00E94030866
:10220E000FB6F894DEBF0FBECDBFE2960FB6F894B0
:10221E00DEBF0FBECDBFDF91CF911F910F910895FD
:10222E00E89409C097FB3EF4909580957095619562
:10223E007F4F8F4F9F4F9923A9F0F92F96E9BB2718
:10224E009395F695879577956795B795F111F8CF94
:10225E00FAF4BB0F11F460FF1BC06F5F7F4F8F4FFF
:10226E009F4F16C0882311F096E911C0772321F0F5
:10227E009EE8872F762F05C0662371F096E8862F8D
:10228E0070E060E02AF09A95660F771F881FDAF7E4
:0A229E00880F9695879597F908952B
:1022A8000F931F93CF93DF93CDB7DEB7E2970FB6A7
:1022B800F894DEBF0FBECDBF9B01AC0160E070E0BB
:1022C80080E89FE30E9424169F938F937F936F93D8
:1022D80082EE90E0A0E0AF939F938F938E010F5F03
:1022E8001F4F1F930F930E946415A80160E820E018
:1022F80085E00E9403080FB6F894DEBF0FBECDBF7D
:10230800E2960FB6F894DEBF0FBECDBFDF91CF9136
:062318001F910F910895D2
:10231E006130D1F4E82FE695E695E695F0E0EE0F04
:10232E00FF1FE65AFD4F0190F081E02D408187702E
:10233E0021E030E0B90102C0660F771F8A95E2F7FF
:10234E00CB01842B8083089561111AC0E82FE69586
:10235E00E695E695F0E0EE0FFF1FE65AFD4F019071
:10236E00F081E02D4081877021E030E0B90102C09C
:10237E00660F771F8A95E2F7CB01809584238083C1
:02238E000895B0
:102390006F927F928F92CF92DF92EF920F931F9363
:1023A000CF93DF938C016A01E62EE9013A01862E74
:1023B000620E731E811C37FD8A94C614D704E8048C
:1023C00079F0F6018491E7FC8081B801082E000CB9
:1023D000990B0E9446108FEFC81AD80AE80AEDCF71
:1023E000CE01DF91CF911F910F91EF90DF90CF90B1
:0823F0008F907F906F9008951B
:1023F8000F931F93CF93DF93CDB7DEB7E2970FB656
:10240800F894DEBF0FBECDBF9F938F937F936F93DA
:1024180084EB90E0A0E0AF939F938F938E010F5FC2
:102428001F4F1F930F930E946415A80160E820E0D6
:1024380080E00E9403080FB6F894DEBF0FBECDBF40
:10244800E2960FB6F894DEBF0FBECDBFDF91CF91F5
:062458001F910F91089591
:10245E0061E08BE00E948F116091620270916302C5
:10246E0080916402909165020E9451150E94E20CC7
:10247E00609166007091670080916800909169008C
:10248E000E94FC1160916E0070916F00809170003F
:10249E00909171000E94D710609166007091670054
:1024AE0080916800909169000E9454110E94CF099A
:0224BE00DDCF70
:1024C0000E94CD1388F09F5798F0B92F9927B751E4
:1024D000B0F0E1F0660F771F881F991F1AF0BA95C8
:1024E000C9F714C0B13091F00E940916B1E0089507
:1024F0000C940916672F782F8827B85F39F0B93FF9
:10250000CCF3869577956795B395D9F73EF490957A
:0E2510008095709561957F4F8F4F9F4F089576
:10251E000F931F93CF93DF9385B3886185BB00E044
:10252E0010E010C088EB800F0E94E714C0E0D0E0EE
:10253E0004C080E00E94FD142196C034D105CCF376
:10254E000F5F1F4F083011056CF380E40E94E714F3
:10255E0088EB0E94E714DF91CF911F910F910895A0
:10256E001F920F920FB60F9211242F933F934F93FA
:10257E005F936F937F938F939F93AF93BF93EF93DD
:10258E00FF93E0916200F09163000995FF91EF9146
:10259E00BF91AF919F918F917F916F915F914F916D
:0E25AE003F912F910F900FBE0F901F90189528
:1025BC001F920F920FB60F9211242F933F934F93AC
:1025CC005F936F937F938F939F93AF93BF93EF938F
:1025DC00FF93E0916000F09161000995FF91EF91FC
:1025EC00BF91AF919F918F917F916F915F914F911F
:0E25FC003F912F910F900FBE0F901F901895DA
:10260A001F920F920FB60F9211242F933F934F935D
:10261A005F936F937F938F939F93AF93BF93EF9340
:10262A00FF93E0916C00F0916D000995FF91EF9195
:10263A00BF91AF919F918F917F916F915F914F91D0
:0E264A003F912F910F900FBE0F901F9018958B
:102658001F920F920FB60F9211242F933F934F930F
:102668005F936F937F938F939F93AF93BF93EF93F2
:10267800FF93E0916A00F0916B000995FF91EF914B
:10268800BF91AF919F918F917F916F915F914F9182
:0E2698003F912F910F900FBE0F901F9018953D
:1026A6001F920F920FB60F9211242F933F934F93C1
:1026B6005F936F937F938F939F93AF93BF93EF93A4
:1026C600FF93E0916400F09165000995FF91EF9109
:1026D600BF91AF919F918F917F916F915F914F9134
:0E26E6003F912F910F900FBE0F901F901895EF
:1026F4001F920F920FB60F9211242F933F934F9373
:102704005F936F937F938F939F93AF93BF93EF9355
:10271400FF93E0917600F09177000995FF91EF9196
:10272400BF91AF919F918F917F916F915F914F91E5
:0E2734003F912F910F900FBE0F901F901895A0
:10274200990F0008550FAA0BE0E8FEEF16161706C0
:10275200E807F907C0F012161306E407F50798F028
:10276200621B730B840B950B39F40A2661F0232B41
:10277200242B252B21F408950A2609F4A140A695BD
:082782008FEF811D811D0895F8
:10278A0057FD9058440F551F59F05F3F71F0479518
:10279A00880F97FB991F61F09F3F79F087950895FD
:1027AA00121613061406551FF2CF4695F1DF08C01C
:1027BA00161617061806991FF1CF86957105610539
:0427CA0008940895D2
:1027CE00A1E21A2EAA1BBB1BFD010DC0AA1FBB1F27
:1027DE00EE1FFF1FA217B307E407F50720F0A21B99
:1027EE00B30BE40BF50B661F771F881F991F1A9406
:1027FE0069F760957095809590959B01AC01BD0130
:04280E00CF01089559
:10281200FA0160387105CCF0623871051CF063383A
:10282200710599F4A081B1819D012C5F3F4F3183E5
:1028320020834D915D916D917C91FC014083518388
:102842006283738381E090E0089580E090E00895D0
:1028520097FB10F8169400080F93083098F0085070
:10286200232F342F452F562F672F782F892F902D06
:10287200F4CF0594979587957795679557954795E2
:0C288200379527950A95AAF70F91089545
:10288E00CF92DF92EF92FF926B017C010E94D215E4
:10289E000E942016C701B6010E946012962F80E09A
:1028AE0064E670E00E942915CB010E943A16FF9053
:0828BE00EF90DF90CF90089528
:1028C6008FEF8ABB84BB85B3886385BB8FE39CE9A6
:1028D6000197F1F700C000008EE30E94E71480E440
:1028E6000E94E71488EB0E94E71480EC0E94E7142C
:0828F6008FE30E94E71408952E
:1028FE002F923F924F925F926F927F928F929F9202
:10290E00AF92BF92CF92DF92EF92FF920F931F93EF
:10291E00CF93DF93CDB7DEB7CA1BDB0B0FB6F894A0
:08292E00DEBF0FBECDBF09940E
:102936002A88398848885F846E847D848C849B8449
:10294600AA84B984C884DF80EE80FD800C811B8157
:10295600AA81B981CE0FD11D0FB6F894DEBF0FBE86
:06296600CDBFED01089554
:10296C00CF92DF92EF926A01E62EDC01280F391F1D
:10297C00A217B30751F0F6014491E7FC40814D9347
:10298C004FEFC41AD40AE40AF3CFEF90DF90CF9044
:02299C0008959C
:10299E00A2E0B0E0E5EDF4E10C948D148C013A83E5
:1029AE0029839E012F5F3F4F0E949500F8012081E1
:1029BE0024FF02C08FEF9FEF2296E4E00C94A9143F
:1029CE008BBB85B38E7F85BB85B38D7F85BB85B372
:1029DE00846085BB8DE08A95F1F7000085B38B7F0F
:0C29EE0085BB8DE08A95F1F7000008958C
:1029FA008BBB85B3816085BB85B38D7F85BB85B372
:102A0A00846085BB8DE08A95F1F7000085B38B7FE2
:0C2A1A0085BB8DE08A95F1F7000008955F
:102A2600CF92DF92EF926B01E82EA82FCB01FC012B
:102A36002491A7FD2081222319F00196A11DF7CF2D
:0C2A46008C199D09EF90DF90CF9008954F
:102A520097FB072E16F4009407D077FD09D00E9449
:102A62003D1507FC05D03EF4909581959F4F089542
:082A7200709561957F4F0895F6
:102A7A00AA1BBB1B51E107C0AA1FBB1FA617B7079A
:102A8A0010F0A61BB70B881F991F5A95A9F78095B6
:082A9A009095BC01CD010895E7
:102AA200CF92DF92EF92FF926B017C010E9463143E
:102AB2000E948F12C701B6010E944714FF90EF9047
:062AC200DF90CF900895A3
:102AC800A0E0B0E0EAE6F5E10C948F149E01265FE1
:102AD8003F4F4F81588569858D819E810E94A3153E
:062AE800E2E00C94AB14C7
:102AEE00092E0394000C11F4882352F0BB0F40F40E
:102AFE00BF2B11F460FF04C06F5F7F4F8F4F9F4F4E
:022B0E00089528
:102B10009A01462FDC01F901549147FD50815D93E4
:0C2B20002F5F3F4F4F4F5111F6CF08952B
:102B2C00992777FD05C005900D920197E1F708955F
:0A2B3C0001900D920197E1F7089552
:102B46000F931F9389019A01462F6FEF7FE70E942B
:082B5600A50F1F910F910895D6
:102B5E000024A7FD00942A17300540055005600596
:082B6E00700580059005089533
:102B76000024A7FD00942A0F301D401D501D601D26
:082B8600701D801D901D0895D3
:102B8E00EC010E943F160E943E16CE010E94401696
:062B9E00CE010E943C166E
:102BA40083B7806483BF83B7886083BF83B7806241
:042BB40083BF08953E
:102BB800FC01480F591FE417F50711F06193FBCF8B
:022BC80008956E
:102BCA009C01215431092A31310508F480620895A3
:0E2BDA005058BB27AA270E943E0F0C94771577
:0E2BE8000E9460126894B1110C940A160895B0
:0E2BF60000240A9416161706180609060895FC
:0E2C040000240A9412161306140605060895FD
:0E2C1200E894BB2766277727CB0197F9089532
:0C2C200097F99F6780E870E060E008957D
:0A2C2C000E94A11308F481E008954E
:0A2C36000E94A11308F48FEF089527
:082C400083B7826083BF089591
:082C48000E94F90D0C947715B0
:082C50000E94D40E0C947715CC
:062C58009FEF80EC0895DF
:062C5E0080E090E0089503
:062C640080E090E00895FD
:062C6A0080E090E00895F7
:042C70000C940000C0
:042C74008CBF089574
:042C78000E9458005E
:022C7C000895B9
:022C7E000895B7
:022C80000895B5
:102C8200000000000000005F0000000700070018BD
:102C920018181818FF3C7EDB992313086462404021
:102CA2007E02020202020202404040404002027ED4
:102CB200404014083E081408083E0808005030003E
:102CC20000080808080800606000002010080402DC
:102CD2003E5149453E00427F4000426151494621F2
:102CE20041454B311814127F1027454545393C4A5E
:102CF20049493001710905033649494936064949AE
:102D0200291E003636000000563600000814224103
:102D1200001414141414004122140802015109066B
:102D220099DB7E3CFF7E1111117E7F494949363E77
:102D3200414141227F4141221C7F494949417F094A
:102D42000909013E4149497A7F0808087F00417F0D
:102D520041002040413F017F081422417F40404012
:102D6200407F020C027F7F0408107F3E4141413EBA
:102D72007F090909063E4151215E7F09192946460C
:102D82004949493101017F01013F4040403F1F2035
:102D920040201F3F4038403F631408146307087007
:102DA20008076151494543007F4141000204081070
:102DB200200041417F0004020102044040404040A3
:102DC200000102040020545454787F4844443838A7
:102DD20044444420384444487F3854545418087EAC
:102DE2000901020C5252523E7F0804047800447DCD
:102DF20040002040443D007F1028440000417F40B5
:102E0200007C041804787C0804047838444444386C
:102E12007C14141408081414187C7C080404084850
:102E220054545420043F4440203C4040207C1C2009
:102E320040201C3C4030403C44281028440C505058
:102E4200503C4464544C44000836410000007F006A
:102E520000004136080010080810087846414678FC
:082E62003A0037003400310092
:042E6A0000007042B2
:00000001FF
